:03000000020D8E60
:03003300020F4475
:10080000E5082403F582E43400F583E0050822902E
:100810000000300703900003E475F001120CAD02F4
:100820000BB42000E97F2ED2008018EF540F2490E3
:10083000D43440D4FF30040BEF24BFB41A0050036B
:100840002461FFE50960021509050CE50C7002053D
:100850000B30070E900000E475F001120CADEF02B2
:100860000BCD0210FA7403D2078003E4C207F50827
:10087000900000120CC4E4F509F50BF50CE50960D5
:10088000077F2012084380F5750AFFC201C200C22B
:1008900002C203C205C206C20812080FFF700D3063
:1008A00007057F00120854AF0CAE0B22B4255FC2BF
:1008B000D5C20412080FFF24D0B40A00501A75F0F4
:1008C0000A780930D50508B6FF0106C6A426F62029
:1008D000D5047002D20380D924CFB41A00EF50049B
:1008E000C2E5D204020A55D20180C6D20080C0D22D
:1008F0000280BCD2D580BAD20580B47F20120843D2
:100900002002077401B5090040F1120800FF120827
:100910004302087DD208D2068095120800FB120817
:1009200000FA120800F94A4B700679267A0B7BFF11
:1009300020022EE509602A7E008E82758300120B4C
:100940006560060EEE650A70F0C2D5EBC0E0EAC045
:10095000E0E9C0E0EE120A9CD0E0F9D0E0FAD0E085
:10096000FB120BB4FF60AAEBC0E0EAC0E0E9C0E014
:10097000120843D0E02401F9D0E03400FAD0E0FBC3
:10098000E50A0460DCD50AD980877BFF7A0A79986A
:10099000D202809C791080027908C206C2088008C1
:1009A000D2D5790A8004790AC2D5E50A047002F525
:1009B0000AE4FAFDFEFF120800FC7B082001131276
:1009C0000800FD7B1030000A120800FE120800FF2C
:1009D0007B20EC3382D592D55013C3E43000069FC0
:1009E000FFE49EFEE42001039DFDE49CFCE4CBF8C3
:1009F000C201EC700CCFCECDCCE824F8F870F380B7
:100A000017C3EF33FFEE33FEED33FDEC33FCEB3376
:100A1000FB994002FB0FD8E9EB300105F8D0E0C4A8
:100A200048B201C0E00AEC4D4E4F78207B0070C206
:100A3000EAB50A0040BCC0E0120A9ED0F0D0E02027
:100A40000104C4C0E0C4B201C0F012082CD0F0D53B
:100A5000F0EB02087D120CCD091A5309945808EBEB
:100A60004C08E74209984F09A04409A049090043EE
:100A700009A655098A46098A45098A470B4650083E
:100A8000EF2D08F32E09162B08F7230914200B2F3E
:100A90002A08AF480000090E3F3F3F00790AA2D55F
:100AA000200314300509B910020404B9080104A296
:100AB000D52006025001042002689202B5090050B8
:100AC00034C0E07F203003197F30A2027206720525
:100AD000500F120AF5C202C206C205C2087F30805A
:100AE0000F300503E9C0E0120843300503D0E0F9F8
:100AF000D0E0B509CC3005177F30B9100C1208438F
:100B00007F583004077F788003B908031208433008
:100B100002057F2D0208437F202008F87F2B200646
:100B2000F322920280CF286E756C6C2900D20112DC
:100B300008003001F8C201780930D50108F6020832
:100B4000AF2D504349581208002403B4050040015A
:100B5000E4900B4193120834743A120834D20375AE
:100B60000904020994BB010CE58229F582E5833A68
:100B7000F583E0225006E92582F8E622BBFE06E96D
:100B80002582F8E222E58229F582E5833AF583E4BD
:100B90009322F8BB010DE58229F582E5833AF583BE
:100BA000E8F0225006E92582C8F622BBFE05E925B9
:100BB00082C8F222BB010689828A83E0225002E7C2
:100BC00022BBFE02E32289828A83E49322BB0106D0
:100BD00089828A83F0225002F722BBFE01F322753C
:100BE000F008758200EF2FFFEE33FECD33CDCC330E
:100BF000CCC58233C5829BED9AEC99E58298400C76
:100C0000F582EE9BFEED9AFDEC99FC0FD5F0D6E453
:100C1000CEFBE4CDFAE4CCF9A88222B800C1B90039
:100C200059BA002DEC8BF084CFCECDFCE5F0CBF99A
:100C30007818EF2FFFEE33FEED33FDEC33FCEB3392
:100C4000FB10D703994004EB99FB0FD8E5E4F9FAC0
:100C5000227818EF2FFFEE33FEED33FDEC33FCC9A5
:100C600033C910D7059BE99A4007EC9BFCE99AF938
:100C70000FD8E0E4C9FAE4CCFB2275F010EF2FFFA7
:100C8000EE33FEED33FDCC33CCC833C810D7079B11
:100C9000EC9AE899400AED9BFDEC9AFCE899F80F74
:100CA000D5F0DAE4CDFBE4CCFAE4C8F922F8E0FBB5
:100CB000A3A3E0F925F0F0E582158270021583E028
:100CC000FA38F022EBF0A3EAF0A3E9F022D083D0C7
:100CD00082F8E4937012740193700DA3A393F874D7
:100CE0000193F5828883E4737402936860EFA3A391
:100CF000A380DFE4900050F0900050E004F0E0B4F6
:100D0000FFF6D2A0D2A1D2A2D2A3900050740DF0CF
:100D1000C2A020A4037401F020A506900050740224
:100D2000F020A6069000507403F0D2A0C2A120A427
:100D3000069000507404F020A5069000507405F051
:100D400020A6069000507406F0D2A1C2A220A406EC
:100D50009000507407F020A5069000507408F02011
:100D6000A6069000507409F0D2A2C2A320A4069057
:100D70000050740AF020A505E4900050F020A6066B
:100D8000900050740CF0D2A3900050E0FF22787FC6
:100D9000E4F6D8FD758121020DD5020EECE493A393
:100DA000F8E493A34003F68001F208DFF48029E41D
:100DB00093A3F85407240CC8C333C4540F4420C869
:100DC000834004F456800146F6DFE4800B01020400
:100DD000081020408090117BE47E019360BCA3FF4B
:100DE000543F30E509541FFEE493A360010ECF5435
:100DF000C025E060A840B8E493A3FAE493A3F8E424
:100E000093A3C8C582C8CAC583CAF0A3C8C582C88F
:100E1000CAC583CADFE9DEE780BE900054EBF0A3C9
:100E2000EAF0A3E9F0E4A3F0900057E0C39DEC647E
:100E300080F874809850421211A4EF640D6004EFA2
:100E4000B40A18900054E0FBA3E0FAA3E0F9A3E091
:100E5000F582758300E4120B92801E900054E0FB33
:100E6000A3E0FAA3E0F9A3E0F582758300EF120B8B
:100E700092900057E004F080AF900054E0FBA3E0B4
:100E8000FAA3E0F9AE04AF058F828E83E4020B92E1
:100E9000C2C0C2C1758030D2C27F2C7E01121169DE
:100EA000C2C27F641E121169D2C27F2C0E12116958
:100EB000C2C27F641E121169D2C27F2C0E12116948
:100EC000C2C27F641E12116975803812116275806A
:100ED000081211627580011211627580061211628A
:100EE00075800C121162E4900053F022121121124D
:100EF0000E9012114590000374FFF0A37411F0A33B
:100F00007490F0900028E0FFA3E0900006CFF0A3DB
:100F1000EFF090002AE0FFA3E0900008CFF0A3EFED
:100F2000F090004DE0FFA3E090000ACFF0A3EFF0B7
:100F30007B017A00792C1208657B017A00792C12EA
:100F40000FD080AEC0E0C083C082C2DF30D8109026
:100F50000029E004F07006900028E004F0C2D830C8
:100F6000D91090002BE004F0700690002AE004F005
:100F7000C2D930DA1090004EE004F0700690004DB7
:100F8000E004F0C2DAD082D083D0E032C2D5E830BB
:100F9000E70FB2D5E4C39BFBE49AFAE499F9E4982D
:100FA000F8EC30E717B2D5120FC2120C1BE4C39B4A
:100FB000FBE49AFAE499F9E498F88003120C1B30E8
:100FC000D50DE4C39FFFE49EFEE49DFDE49CFC225E
:100FD000900000EBF0A3EAF0A3E9F0E490004FF0FA
:100FE00090004FE0FFC394205021900000E0FBA34D
:100FF000E0FAA3E0F98F82758300120B65FF600BA6
:1010000012100C90004FE004F080D522900003EF06
:10101000F0900053E0B410047F108009900053E07A
:10102000B42005E4FF121075D2C0C2C1900003E0E5
:10103000F580D2C27F327E00121164900053E0042A
:10104000F022900058EBF0A3EAF0A3E9F0E4FE9060
:101050000058E0FBA3E0FAA3E0F98E82758300124A
:101060000B65FF600612119C0E80E47F0D12119C2F
:101070007F0A02119C900053E0C394205028EFF0A7
:10108000C394105005E024808006900053E024B003
:10109000F580C2C0C2C1D2C27F647E00121169C293
:1010A000C27F321211692243F60175F32043F3081F
:1010B00053F3EFAFF5EF75F004A4ADF47C002DFE13
:1010C000EC35F0900051F0A3CEF0900051E0FEA37B
:1010D000E0FF2243892053892FC29FD29E438780FD
:1010E000AB07AA06E4F9F87F247EF4FDFC120F8C0E
:1010F000EFF404F58DD29CD28E22EFB40A07740D62
:10110000121105740A309811A899B8130CC29830BE
:1011100098FDA899C298B811F63099FDC299F59931
:1011200022D2AFD2AED28C75890275DA4975DB490D
:1011300075DC49E4F5FA75FB5575FCAA75D905D23D
:10114000DE758CFE22C2C0C2C1758001D2C27F3260
:101150007E00121169C2C27F64121169E4900053CB
:10116000F022D2C2121169C2C2E4FDFCC3ED9FECB1
:101170009E50070DBD00010C80F22242005100007C
:10118000420028000042002A000042004D000000FA
:101190002532692025326920253269008F993099DE
:1011A000FDC299223098FDAF99C29822900053E079
:0211B000FF221C
:00000001FF
