:03000000020D8E60
:10080000E5082403F582E43400F583E0050822902E
:100810000000300703900003E475F001120CAD02F4
:100820000BB42000E97F2ED2008018EF540F2490E3
:10083000D43440D4FF30040BEF24BFB41A0050036B
:100840002461FFE50960021509050CE50C7002053D
:100850000B30070E900000E475F001120CADEF02B2
:100860000BCD0211107403D2078003E4C207F50810
:10087000900000120CC4E4F509F50BF50CE50960D5
:10088000077F2012084380F5750AFFC201C200C22B
:1008900002C203C205C206C20812080FFF700D3063
:1008A00007057F00120854AF0CAE0B22B4255FC2BF
:1008B000D5C20412080FFF24D0B40A00501A75F0F4
:1008C0000A780930D50508B6FF0106C6A426F62029
:1008D000D5047002D20380D924CFB41A00EF50049B
:1008E000C2E5D204020A55D20180C6D20080C0D22D
:1008F0000280BCD2D580BAD20580B47F20120843D2
:100900002002077401B5090040F1120800FF120827
:100910004302087DD208D2068095120800FB120817
:1009200000FA120800F94A4B700679267A0B7BFF11
:1009300020022EE509602A7E008E82758300120B4C
:100940006560060EEE650A70F0C2D5EBC0E0EAC045
:10095000E0E9C0E0EE120A9CD0E0F9D0E0FAD0E085
:10096000FB120BB4FF60AAEBC0E0EAC0E0E9C0E014
:10097000120843D0E02401F9D0E03400FAD0E0FBC3
:10098000E50A0460DCD50AD980877BFF7A0A79986A
:10099000D202809C791080027908C206C2088008C1
:1009A000D2D5790A8004790AC2D5E50A047002F525
:1009B0000AE4FAFDFEFF120800FC7B082001131276
:1009C0000800FD7B1030000A120800FE120800FF2C
:1009D0007B20EC3382D592D55013C3E43000069FC0
:1009E000FFE49EFEE42001039DFDE49CFCE4CBF8C3
:1009F000C201EC700CCFCECDCCE824F8F870F380B7
:100A000017C3EF33FFEE33FEED33FDEC33FCEB3376
:100A1000FB994002FB0FD8E9EB300105F8D0E0C4A8
:100A200048B201C0E00AEC4D4E4F78207B0070C206
:100A3000EAB50A0040BCC0E0120A9ED0F0D0E02027
:100A40000104C4C0E0C4B201C0F012082CD0F0D53B
:100A5000F0EB02087D120CCD091A5309945808EBEB
:100A60004C08E74209984F09A04409A049090043EE
:100A700009A655098A46098A45098A470B4650083E
:100A8000EF2D08F32E09162B08F7230914200B2F3E
:100A90002A08AF480000090E3F3F3F00790AA2D55F
:100AA000200314300509B910020404B9080104A296
:100AB000D52006025001042002689202B5090050B8
:100AC00034C0E07F203003197F30A2027206720525
:100AD000500F120AF5C202C206C205C2087F30805A
:100AE0000F300503E9C0E0120843300503D0E0F9F8
:100AF000D0E0B509CC3005177F30B9100C1208438F
:100B00007F583004077F788003B908031208433008
:100B100002057F2D0208437F202008F87F2B200646
:100B2000F322920280CF286E756C6C2900D20112DC
:100B300008003001F8C201780930D50108F6020832
:100B4000AF2D504349581208002403B4050040015A
:100B5000E4900B4193120834743A120834D20375AE
:100B60000904020994BB010CE58229F582E5833A68
:100B7000F583E0225006E92582F8E622BBFE06E96D
:100B80002582F8E222E58229F582E5833AF583E4BD
:100B90009322F8BB010DE58229F582E5833AF583BE
:100BA000E8F0225006E92582C8F622BBFE05E925B9
:100BB00082C8F222BB010689828A83E0225002E7C2
:100BC00022BBFE02E32289828A83E49322BB0106D0
:100BD00089828A83F0225002F722BBFE01F322753C
:100BE000F008758200EF2FFFEE33FECD33CDCC330E
:100BF000CCC58233C5829BED9AEC99E58298400C76
:100C0000F582EE9BFEED9AFDEC99FC0FD5F0D6E453
:100C1000CEFBE4CDFAE4CCF9A88222B800C1B90039
:100C200059BA002DEC8BF084CFCECDFCE5F0CBF99A
:100C30007818EF2FFFEE33FEED33FDEC33FCEB3392
:100C4000FB10D703994004EB99FB0FD8E5E4F9FAC0
:100C5000227818EF2FFFEE33FEED33FDEC33FCC9A5
:100C600033C910D7059BE99A4007EC9BFCE99AF938
:100C70000FD8E0E4C9FAE4CCFB2275F010EF2FFFA7
:100C8000EE33FEED33FDCC33CCC833C810D7079B11
:100C9000EC9AE899400AED9BFDEC9AFCE899F80F74
:100CA000D5F0DAE4CDFBE4CCFAE4C8F922F8E0FBB5
:100CB000A3A3E0F925F0F0E582158270021583E028
:100CC000FA38F022EBF0A3EAF0A3E9F022D083D0C7
:100CD00082F8E4937012740193700DA3A393F874D7
:100CE0000193F5828883E4737402936860EFA3A391
:100CF000A380DFE490003AF090003AE004F0E0B422
:100D0000FFF6D2A0D2A1D2A2D2A390003A740DF0E5
:100D1000C2A020A4037401F020A50690003A74023A
:100D2000F020A60690003A7403F0D2A0C2A120A43D
:100D30000690003A7404F020A50690003A7405F07D
:100D400020A60690003A7406F0D2A1C2A220A40602
:100D500090003A7407F020A50690003A7408F0203D
:100D6000A60690003A7409F0D2A2C2A320A406906D
:100D7000003A740AF020A505E490003AF020A60697
:100D800090003A740CF0D2A390003AE0FF22787FF2
:100D9000E4F6D8FD758121020DD5020F4FE493A32F
:100DA000F8E493A34003F68001F208DFF48029E41D
:100DB00093A3F85407240CC8C333C4540F4420C869
:100DC000834004F456800146F6DFE4800B01020400
:100DD0000810204080901183E47E019360BCA3FF43
:100DE000543F30E509541FFEE493A360010ECF5435
:100DF000C025E060A840B8E493A3FAE493A3F8E424
:100E000093A3C8C582C8CAC583CAF0A3C8C582C88F
:100E1000CAC583CADFE9DEE780BE90003EEBF0A3DF
:100E2000EAF0A3E9F0E4A3F0900041E0C39DEC6494
:100E300080F87480985042121175EF640D6004EFD1
:100E4000B40A1890003EE0FBA3E0FAA3E0F9A3E0A7
:100E5000F582758300E4120B92801E90003EE0FB49
:100E6000A3E0FAA3E0F9A3E0F582758300EF120B8B
:100E700092900041E004F080AF90003EE0FBA3E0E0
:100E8000FAA3E0F9AE04AF058F828E83E4020B92E1
:100E9000E4F580C2C0C2C1758001D2C27FE87E0382
:100EA00012115BC2C2E4F580C2C0C2C1758038D2E3
:100EB000C27FE87E0312115BC2C2E4F580C2C0C2E9
:100EC000C1758008D2C27FE87E0312115BC2C2E402
:100ED000F580C2C0C2C1758006D2C27FE87E03120F
:100EE000115BC2C275800CD2C27FE87E0312115B17
:100EF000C2C222C2C0C2C1758030D2C27F2C7E0164
:100F000012115BC2C27F641E12115BD2C27F2C0E13
:100F100012115BC2C27F641E12115BD2C27F2C0E03
:100F200012115BC2C27F641E12115B7580381211F0
:100F30005475800812115475800112115475800681
:100F400012115475800C121154E490003DF02212DD
:100F50000E90E4900037F0A3F01211379000037464
:100F6000FFF0A37411F0A37489F0900037E0FFA3A1
:100F7000E0900006CFF0A3EFF07B017A0079281211
:100F800008657B017A007928120FE67F107E271210
:100F9000115B900038E004F070BF900037E004F07F
:100FA00080B7C2D5E830E70FB2D5E4C39BFBE49A23
:100FB000FAE499F9E498F8EC30E717B2D5120FD8B3
:100FC000120C1BE4C39BFBE49AFAE499F9E498F849
:100FD0008003120C1B30D50DE4C39FFFE49EFEE49A
:100FE0009DFDE49CFC22900000EBF0A3EAF0A3E955
:100FF000F0E4900039F0900039E0FFC394205021D4
:10100000900000E0FBA3E0FAA3E0F98F8275830073
:10101000120B65FF600B121022900039E004F08083
:10102000D522900003EFF090003DE0B410047F1053
:10103000800990003DE0B42005E4FF12108BD2C07F
:10104000C2C1900003E0F580D2C27F327E0012114F
:101050005690003DE004F022900042EBF0A3EAF04D
:10106000A3E9F0E4FE900042E0FBA3E0FAA3E0F97C
:101070008E82758300120B65FF600612116D0E8063
:10108000E47F0D12116D7F0A02116D90003DE0C3E7
:1010900094205028EFF0C394105005E0248080067F
:1010A00090003DE024B0F580C2C0C2C1D2C27F64CE
:1010B0007E0012115BC2C27F3212115B2243F60125
:1010C00075F32043F30853F3EFAFF5EF75F004A485
:1010D000ADF47C002DFEEC35F090003BF0A3CEF09B
:1010E00090003BE0FEA3E0FF2243892053892FC2FA
:1010F0009FD29E438780AB07AA06E4F9F87F247E3F
:10110000F4FDFC120FA2EFF404F58DD29CD28E22D6
:10111000EFB40A07740D12111B740A309811A899C4
:10112000B8130CC2983098FDA899C298B811F6303F
:1011300099FDC299F59922C2C0C2C1758001D2C27F
:101140007F327E0012115BC2C27F6412115BE49099
:10115000003DF022D2C212115BC2C2E4FDFCC3ED1D
:101160009FEC9E50070DBD00010C80F2228F99303C
:1011700099FDC299223098FDAF99C2982290003D06
:0C118000E0FF2242003B0000002564005C
:00000001FF
