:03000000020EC429
:03003300020D4279
:10080000E5082434F582E43400F583E005082290FD
:100810000031300703900034E475F001120CFC0243
:100820000C032000E97F2ED2008018EF540F249093
:10083000D43440D4FF30040BEF24BFB41A0050036B
:100840002461FFE50960021509050CE50C7002053D
:100850000B30070E900031E475F001120CFCEF0232
:100860000C1C0211DA7403D2078003E4C207F508F6
:10087000900031120D13E4F509F50BF50CE5096054
:10088000077F2012084380F5750AFFC201C200C22B
:1008900002C203C205C206C20812080FFF700D3063
:1008A00007057F00120854AF0CAE0B22B4255FC2BF
:1008B000D5C20412080FFF24D0B40A00501A75F0F4
:1008C0000A780930D50508B6FF0106C6A426F62029
:1008D000D5047002D20380D924CFB41A00EF50049B
:1008E000C2E5D204020A55D20180C6D20080C0D22D
:1008F0000280BCD2D580BAD20580B47F20120843D2
:100900002002077401B5090040F1120800FF120827
:100910004302087DD208D2068095120800FB120817
:1009200000FA120800F94A4B700679267A0B7BFF11
:1009300020022EE509602A7E008E82758300120B4C
:100940006560060EEE650A70F0C2D5EBC0E0EAC045
:10095000E0E9C0E0EE120A9CD0E0F9D0E0FAD0E085
:10096000FB120C03FF60AAEBC0E0EAC0E0E9C0E0C4
:10097000120843D0E02401F9D0E03400FAD0E0FBC3
:10098000E50A0460DCD50AD980877BFF7A0A79986A
:10099000D202809C791080027908C206C2088008C1
:1009A000D2D5790A8004790AC2D5E50A047002F525
:1009B0000AE4FAFDFEFF120800FC7B082001131276
:1009C0000800FD7B1030000A120800FE120800FF2C
:1009D0007B20EC3382D592D55013C3E43000069FC0
:1009E000FFE49EFEE42001039DFDE49CFCE4CBF8C3
:1009F000C201EC700CCFCECDCCE824F8F870F380B7
:100A000017C3EF33FFEE33FEED33FDEC33FCEB3376
:100A1000FB994002FB0FD8E9EB300105F8D0E0C4A8
:100A200048B201C0E00AEC4D4E4F78207B0070C206
:100A3000EAB50A0040BCC0E0120A9ED0F0D0E02027
:100A40000104C4C0E0C4B201C0F012082CD0F0D53B
:100A5000F0EB02087D120D1C091A5309945808EB9B
:100A60004C08E74209984F09A04409A049090043EE
:100A700009A655098A46098A45098A470B4650083E
:100A8000EF2D08F32E09162B08F7230914200B2F3E
:100A90002A08AF480000090E3F3F3F00790AA2D55F
:100AA000200314300509B910020404B9080104A296
:100AB000D52006025001042002689202B5090050B8
:100AC00034C0E07F203003197F30A2027206720525
:100AD000500F120AF5C202C206C205C2087F30805A
:100AE0000F300503E9C0E0120843300503D0E0F9F8
:100AF000D0E0B509CC3005177F30B9100C1208438F
:100B00007F583004077F788003B908031208433008
:100B100002057F2D0208437F202008F87F2B200646
:100B2000F322920280CF286E756C6C2900D20112DC
:100B300008003001F8C201780930D50108F6020832
:100B4000AF2D504349581208002403B4050040015A
:100B5000E4900B4193120834743A120834D20375AE
:100B60000904020994BB010CE58229F582E5833A68
:100B7000F583E0225006E92582F8E622BBFE06E96D
:100B80002582F8E222E58229F582E5833AF583E4BD
:100B90009322F8BB010DE58229F582E5833AF583BE
:100BA000E8F0225006E92582C8F622BBFE05E925B9
:100BB00082C8F222E88FF0A4CC8BF0A42CFCE98E42
:100BC000F0A42CFC8AF0EDA42CFCEA8EF0A4CDA8B5
:100BD000F08BF0A42DCC3825F0FDE98FF0A42CCDBE
:100BE00035F0FCEB8EF0A4FEA9F0EB8FF0A4CFC59E
:100BF000F02ECD39FEE43CFCEAA42DCE35F0FDE428
:100C00003CFC22BB010689828A83E0225002E72253
:100C1000BBFE02E32289828A83E49322BB01068918
:100C2000828A83F0225002F722BBFE01F32275F084
:100C300008758200EF2FFFEE33FECD33CDCC33CCE1
:100C4000C58233C5829BED9AEC99E58298400CF5FC
:100C500082EE9BFEED9AFDEC99FC0FD5F0D6E4CE2A
:100C6000FBE4CDFAE4CCF9A88222B800C1B900595E
:100C7000BA002DEC8BF084CFCECDFCE5F0CBF9782B
:100C800018EF2FFFEE33FEED33FDEC33FCEB33FBBF
:100C900010D703994004EB99FB0FD8E5E4F9FA2249
:100CA0007818EF2FFFEE33FEED33FDEC33FCC93344
:100CB000C910D7059BE99A4007EC9BFCE99AF90F0C
:100CC000D8E0E4C9FAE4CCFB2275F010EF2FFFEE78
:100CD00033FEED33FDCC33CCC833C810D7079BECC3
:100CE0009AE899400AED9BFDEC9AFCE899F80FD53B
:100CF000F0DAE4CDFBE4CCFAE4C8F922F8E0FBA397
:100D0000A3E0F925F0F0E582158270021583E0FA80
:100D100038F022EBF0A3EAF0A3E9F022D083D082EE
:100D2000F8E4937012740193700DA3A393F8740107
:100D300093F5828883E4737402936860EFA3A3A39E
:100D400080DFC0E0C0F0C083C082C0D075D000C0DA
:100D500000C001C002C003C004C005C006C007C275
:100D6000AFC2AE20D803020E0130DF10C2DF900008
:100D700030E004F0700690002FE004F0AFFAEF903E
:100D8000000AF0A3E4F0AFEAA3F0A3EFF0900004B0
:100D9000E0FFA3E0A3CFF0A3EFF090002FE0FEA3CD
:100DA000E0FFEE3395E0FDFCE4FBFA7901F8120B6D
:100DB000B490000CE0FCA3E0FD90000BE02DFD9052
:100DC000000AE03CCD2FFFED3EFE900004F0A3EFC3
:100DD000F0A3E0FCA3E0FDC3EF9DFFEE9CFE9000BE
:100DE00002F0A3EFF0FBAA06EA3395E0F9F87FE002
:100DF0007E937D047C0012106C900008EEF0A3EF4F
:100E0000F0C2D8D2AFD2AE90002FE4F0A3F0D0075A
:100E1000D006D005D004D003D002D001D000D0D06D
:100E2000D082D083D0F0D0E032E490005AF090002D
:100E30005AE004F0E0B4FFF6D2A0D2A1D2A2D2A32D
:100E400090005A740DF0C2A020A4037401F020A5F4
:100E50000690005A7402F020A60690005A7403F01F
:100E6000D2A0C2A120A40690005A7404F020A506C6
:100E700090005A7405F020A60690005A7406F0D22D
:100E8000A1C2A220A40690005A7407F020A50690E3
:100E9000005A7408F020A60690005A7409F0D2A2F5
:100EA000C2A320A40690005A740AF020A505E4907D
:100EB000005AF020A60690005A740CF0D2A39000BD
:100EC0005AE0FF22787FE4F6D8FD758121020F0BEE
:100ED000021022E493A3F8E493A34003F68001F206
:100EE00008DFF48029E493A3F85407240CC8C33323
:100EF000C4540F4420C8834004F456800146F6DFF2
:100F0000E4800B0102040810204080901237E47E38
:100F1000019360BCA3FF543F30E509541FFEE493E6
:100F2000A360010ECF54C025E060A840B8E493A3AD
:100F3000FAE493A3F8E493A3C8C582C8CAC583CAD8
:100F4000F0A3C8C582C8CAC583CADFE9DEE780BE90
:100F500090005EEBF0A3EAF0A3E9F0E4A3F09000C8
:100F600061E0C39DEC6480F8748098504212124A8C
:100F7000EF640D6004EFB40A1890005EE0FBA3E09C
:100F8000FAA3E0F9A3E0F582758300E4120B9280E6
:100F90001E90005EE0FBA3E0FAA3E0F9A3E0F58277
:100FA000758300EF120B92900061E004F080AF9027
:100FB000005EE0FBA3E0FAA3E0F9AE04AF058F8288
:100FC0008E83E4020B92C2C0C2C1758030D2C27F50
:100FD0002C7E01121225C2C27F641E121225D2C2BB
:100FE0007F2C0E121225C2C27F641E121225D2C29D
:100FF0007F2C0E121225C2C27F641E12122575802C
:101000003812121E75800812121E75800112121EEF
:1010100075800612121E75800C12121EE490005D7F
:10102000F022D2AFD2AE75DA1175D840C2DF120FFE
:10103000C612120190003474FFF0A37412F0A3746E
:1010400052F0900008E0FFA3E0900037CFF0A3EF4C
:10105000F07B017A00790E1208657B017A00790E27
:101060001210B07FE87E0312122580C5C2D5E83089
:10107000E70FB2D5E4C39BFBE49AFAE499F9E4984C
:10108000F8EC30E717B2D51210A2120C6AE4C39B39
:10109000FBE49AFAE499F9E498F88003120C6A30B8
:1010A000D50DE4C39FFFE49EFEE49DFDE49CFC227D
:1010B000900031EBF0A3EAF0A3E9F0E4900059F0DE
:1010C000900059E0FFC394205021900031E0FBA331
:1010D000E0FAA3E0F98F82758300120B65FF600BC5
:1010E0001210EC900059E004F080D522900034EF0B
:1010F000F090005DE0B410047F10800990005DE086
:10110000B42005E4FF121155D2C0C2C1900034E0F2
:10111000F580D2C27F327E0012122090005DE00482
:10112000F022900062EBF0A3EAF0A3E9F0E4FE9075
:101130000062E0FBA3E0FAA3E0F98E82758300125F
:101140000B65FF60061212420E80E47F0D12124200
:101150007F0A02124290005DE0C394205028EFF015
:10116000C394105005E02480800690005DE024B018
:10117000F580C2C0C2C1D2C27F647E00121225C2F5
:10118000C27F321212252243F60175F32043F30881
:1011900053F3EFAFF5EF75F004A4ADF47C002DFE32
:1011A000EC35F090005BF0A3CEF090005BE0FEA386
:1011B000E0FF2243892053892FC29FD29E4387801C
:1011C000AB07AA06E4F9F87F247EF4FDFC12106C4C
:1011D000EFF404F58DD29CD28E22EFB40A07740D81
:1011E0001211E5740A309811A899B8130CC29830FE
:1011F00098FDA899C298B811F63099FDC299F59951
:1012000022C2C0C2C1758001D2C27F327E001212DA
:1012100025C2C27F64121225E490005DF022D2C282
:10122000121225C2C2E4FDFCC3ED9FEC9E50070DD7
:10123000BD00010C80F22242005B0000420002006F
:1012400000008F993099FDC299223098FDAF99C264
:10125000982252504D3A2025690090005DE0FF220F
:00000001FF
