:0300000002159254
:10080000020B11E86480F8E933E83360110460F00A
:10081000ED33EC337009E8FCE9FDEAFEEBFF22045E
:1008200060DED3EB9FEA9EE99DE8C2E78CF0C2F759
:1008300095F0400CE8CCF8E9CDF9EACEFAEBCFFB25
:10084000120ADC85D0F05804700320D5B3E8047098
:10085000075002B2D5020B1B92D5EC0460F7E4CC32
:10086000C0E0C398F8603B94186008400DD0E0FBEE
:10087000020AF3E4FBFAC9FC8028E830E406E4C984
:10088000FBE4CAFCE830E305E4C9CACBFCE8540742
:100890006010F8C3E913F9EA13FAEB13FBEC13FC4D
:1008A000D8F130F52FC3E49CFCEF9BFFEE9AFEEDF0
:1008B00099FDD0E0FBEF4E4D4C701222DB03020B92
:1008C00018EC2CFCEF33FFEE33FEED33FDED30E79B
:1008D000EB020AF3EF2BFFEE3AFEED39FDD0E0FB21
:1008E00050130BBB0003020B1BED13FDEE13FEEFC9
:1008F00013FFEC13FC020AF3EC4D6011E84970178A
:10090000ED33EC3304600DE4FCFFFEFD22E933E837
:10091000330470F8020B11120ADC58046009E4CCAD
:1009200024815006285009020B1B284003020B1893
:10093000C0E0EB4A7044B98006D0E0FB020B07EF41
:100940004E701CBD8008EBFFEAFEE9FD80EBE98DEF
:10095000F0A4FEE5F00209E1E9CDF9EAFEEBFFEFD4
:1009600089F0A4FCE5F0CE89F0A42EFFE435F0CDAB
:1009700089F0A42DFEE435F08067EF4E7005BD8050
:10098000D780C3EF8BF0A4ACF0EE8BF0A42CFCE48A
:1009900035F0F8EF8AF0A42CE5F038FCE433CB8D89
:1009A000F0A42CFCE5F03BF8EE8AF0A42CFCE5F07A
:1009B00038F8E433CF89F0A42CFCE5F038CF3400CC
:1009C000CE89F0A42FFFE5F03EFEE433C98DF0A4FC
:1009D0002EFEE5F039CD8AF0A42FFFE5F03EFEE4CF
:1009E0003DFD33D0E0FB50070BBB000F020B1BECAF
:1009F0002CFCEF33FFEE33FEED33FD020AF3020B66
:100A00001BEC5D046005E859047003020B11120A27
:100A1000DC580460F6EC4860F2EC7004FDFEFF2246
:100A2000C860DB2481C85009C39860025006020BDD
:100A3000189850CAF582E9294B4A7005AB82020B1F
:100A40000775F0007C1A7880C3EF9BEE9AED994011
:100A50000DC3EF9BFFEE9AFEED99FDE842F0DC231B
:100A6000ACF0D0E0FFD0E0FED0E0FDAB8220E7109C
:100A70001BEB60BAEC2CFCEF33FFEE33FEED33FDE5
:100A8000020AF3E803F830E705C0F075F000EF2F35
:100A9000FFEE33FEED33FD40B830E7C280AA75F0BB
:100AA00020800E75F010800575F0087D007E007FB7
:100AB000003392D530D503120D52EC334010EF3392
:100AC000FFEE33FEED33FDEC33FCD5F0ED22E5F027
:100AD000247EA2D513CC92E7CDCEFF22E9D2E7C97E
:100AE00033E833F892D5EDD2E7CD33EC33FC500246
:100AF000B2D522EC30E7100FBF000C0EBE00080D7F
:100B0000BD00040BEB6014A2D5EB13FCED92E7FDE6
:100B10002274FFFCFDFEFF22E480F8A2D574FF13CF
:100B2000FC7D80E480EFF920E73624F95003790753
:100B3000E4F42402FBE582158270021583DBF6E003
:100B400024FB501BE96014E4F0E582158270021565
:100B500083E004F0B40A08E4F0D9EE7401F00A224C
:100B6000C2D522ED33EC3392D5FA602AB4FF33EDCF
:100B7000C2E77BFF60067A0B7988E4227A0B7991D1
:100B800020D5047A0B798C224E614E002B494E46BB
:100B9000002D494E4600E47A08F0A3DAFC7B00748D
:100BA0000722C083C082ECC0E0EDC0E0EEC0E0EF01
:100BB000C0E0EA75F010A4CAABF075F04DA42BFBB1
:100BC000E435F0FCEA2410FAEB34C5FBEC34D9FC34
:100BD000EDC2E7FF75F056A4F42411C5F0F434C556
:100BE0008FF0A42AE5F03BE43CF020E714120C98C7
:100BF000D0E0FFD0E0FED0E0FDD0E0FC120A0180A2
:100C000014F404120C98D0E0FFD0E0FED0E0FDD048
:100C1000E0FC1208F8D082D083E0FAEDD2E7CD33C1
:100C2000EC332482FBE4C3CF33CFCE33CECD33CDF0
:100C300033DBF37B0775F00A846004F0A31B0AE53D
:100C4000F0F0A38FF0740AA4FFACF08EF0740AA445
:100C50002CFEACF050010C8DF0740AA42CFDE43590
:100C6000F0F0A3DBDE7407223F800000412000008B
:100C700042C80000447A0000461C400047C35000B0
:100C8000497424004B1896804CBEBC205A0E1BCAD7
:100C90006753C21C749DC5AEFB60065407601C23DD
:100CA00023120CC6EB54386009120CB2120CC1129C
:100CB00008F8ECF8EDF9EEFAEFCB22EB120CC1805C
:100CC000F1543803241C900C68FE93FC0EEE93FD47
:100CD0000EEE930ECE93FF22BB010689828A83E03B
:100CE000225002E722BBFE02E32289828A83E49338
:100CF00022BB010CE58229F582E5833AF583E022E7
:100D00005006E92582F8E622BBFE06E92582F8E2D4
:100D100022E58229F582E5833AF583E49322BB013B
:100D20000689828A83F0225002F722BBFE01F32259
:100D3000F8BB010DE58229F582E5833AF583E8F0F9
:100D4000225006E92582C8F622BBFE05E92582C8A5
:100D5000F222C3E49FFFE49EFEE49DFDE49CFC229E
:100D6000ECF0A3EDF0A3EEF0A3EFF022A8828583D0
:100D7000F0D083D082120D83120D83120D83120DD9
:100D800083E473E493A3C583C5F0C583C8C582C853
:100D9000F0A3C583C5F0C583C8C582C822F8E0FBAF
:100DA000A3A3E0F925F0F0E582158270021583E037
:100DB000FA38F022EBF0A3EAF0A3E9F022D083D0D6
:100DC00082F8E4937012740193700DA3A393F874E6
:100DD0000193F5828883E4737402936860EFA3A3A0
:100DE000A380DF75F008758200EF2FFFEE33FECD94
:100DF00033CDCC33CCC58233C5829BED9AEC99E5DB
:100E00008298400CF582EE9BFEED9AFDEC99FC0F6A
:100E1000D5F0D6E4CEFBE4CDFAE4CCF9A88222B832
:100E200000C1B90059BA002DEC8BF084CFCECDFCB7
:100E3000E5F0CBF97818EF2FFFEE33FEED33FDEC44
:100E400033FCEB33FB10D703994004EB99FB0FD82D
:100E5000E5E4F9FA227818EF2FFFEE33FEED33FDCB
:100E6000EC33FCC933C910D7059BE99A4007EC9BCA
:100E7000FCE99AF90FD8E0E4C9FAE4CCFB2275F05A
:100E800010EF2FFFEE33FEED33FDCC33CCC833C86B
:100E900010D7079BEC9AE899400AED9BFDEC9AFC71
:100EA000E899F80FD5F0DAE4CDFBE4CCFAE4C8F920
:100EB00022E508244FF582E43400F583E00508229A
:100EC00090004C30070390004FE475F001120D9D27
:100ED000020CD82000E97F2ED2008018EF540F2496
:100EE00090D43440D4FF30040BEF24BFB41A005028
:100EF000032461FFE50960021509050CE50C700289
:100F0000050B30070E90004CE475F001120D9DEFBB
:100F1000020D1E02185E7403D2078003E4C207F5B7
:100F20000890004C120DB4E4F509F50BF50CE50939
:100F300060077F20120EF480F5750AFFC201C2001F
:100F4000C202C203C205C206C208120EC0FF700D63
:100F50003007057F00120F05AF0CAE0B22B4255FE2
:100F6000C2D5C204120EC0FF24D0B40A00501A75B4
:100F7000F00A780930D50508B6FF0106C6A426F6A2
:100F800020D5047002D20380D924CFB41A00EF50C8
:100F900004C2E5D2040211F7D20180C6D20080C09B
:100FA000D20280BCD2D580BAD20580B47F20120E86
:100FB000F42002077401B5090040F1120EB1FF12CE
:100FC0000EF4020F2ED208D2068095120EB1FB123B
:100FD0000EB1FA120EB1F94A4B700679F57A127B0E
:100FE000FF20022EE509602A7E008E8275830012A2
:100FF0000CF160060EEE650A70F0C2D5EBC0E0EAB7
:10100000C0E0E9C0E0EE121258D0E0F9D0E0FAD02A
:10101000E0FB120CD8FF60AAEBC0E0EAC0E0E9C038
:10102000E0120EF4D0E02401F9D0E03400FAD0E070
:10103000FBE50A0460DCD50AD98087D20280A212BF
:10104000123A60F7E50A700104120B26A90A600D36
:10105000E50A600914F50A1212E2EF60F3EA30E7DC
:1010600002F404C3995079EAF4250A0430E701E454
:1010700004F50A800D12123A60C1EA050A250A1227
:101080000B26EA90007BF030E701E4250A04D50A3C
:101090000420050114121258E4C0E01212E290007C
:1010A0007BE0601320E70714F0120EDC802204F0CE
:1010B000D0E014C0E07F00120EDCE50A6007120EDB
:1010C000D3150A800B300503120ED3D0E0020F2E89
:1010D000D0E00480C412123A609EE50A04120B2686
:1010E00090007BEAF0E50A20050260010424041266
:1010F000125874FF04C0E01212E2120EDCE50A205E
:1011000005026003120ED3D0E0B50AE87F45120E47
:10111000E690007BE07F2B30E7047F2DF404C0E0F5
:10112000120EF4D0E075F00A84C0F0120EDDD0E0AB
:10113000120EDD020F2E791080027908C206C20855
:101140008008D2D5790A8004790AC2D5E50A0470EC
:1011500002F50AE4FAFDFEFF120EB1FC7B08200145
:1011600013120EB1FD7B1030000A120EB1FE120EEA
:10117000B1FF7B20EC3382D592D55013C3E430000D
:10118000069FFFE49EFEE42001039DFDE49CFCE439
:10119000CBF8C201EC700CCFCECDCCE824F8F870BF
:1011A000F38017C3EF33FFEE33FEED33FDEC33FC7A
:1011B000EB33FB994002FB0FD8E9EB300105F8D087
:1011C000E0C448B201C0E00AEC4D4E4F78207B00ED
:1011D00070C2EAB50A0040BCC0E012125AD0F0D08A
:1011E000E0200104C4C0E0C4B201C0F0120EDDD0A2
:1011F000F0D5F0EB020F2E120DBD0FCB5311365868
:101200000F9C4C0F9842113A4F1142441142490F22
:10121000B14311485510754610D545103F47131579
:10122000500FA02D0FA42E0FC72B0FA8230FC520E2
:1012300012FE2A0F604800000FBFE50AB4FF0375D5
:101240000A06120EB1FC120EB1FD120EB1FE120E04
:10125000B1FF900074020B63790AA2D52003143009
:101260000509B910020404B9080104A2D520060238
:101270005001042002689202B509005034C0E07F9A
:10128000203003197F30A20272067205500F12122D
:10129000B1C202C206C205C2087F30800F3005030A
:1012A000E9C0E0120EF4300503D0E0F9D0E0B50952
:1012B000CC3005177F30B9100C120EF47F58300473
:1012C000077F788003B90803120EF43002057F2DE2
:1012D000020EF47F202008F87F2B2006F3229202D2
:1012E00080CF7F00B40700500B2474F582E43400F3
:1012F000F583E0FF22286E756C6C2900D201120E76
:10130000B13001F8C201780930D50108F6020F604A
:101310002D50434958120EB12403B405004001E496
:1013200090131093120EE5743A120EE5D20375096C
:1013300004021136121694E4900000F0A3F0121883
:101340008512180B900006EEF0A3EFF0D39432EE66
:1013500064809483400DE0941D900006E0648094C6
:10136000834028900006E0FCA3E0FDEC120AA37B7A
:101370006D7AC5793E78BE1208F87BD77A63792DED
:101380007843120807900008120D60900006E0FCF8
:10139000A3E0FDEC120AA3C004C005C006C007907C
:1013A0000000E0FEA3E07802C333CE33CED8F924A8
:1013B00038F58274003EF583D007D006D005D004FE
:1013C000120D6090004F74FFF0A37418F0A374BB6B
:1013D000F0900008E0FCA3E0FDA3E0FEA3E0FF9096
:1013E0000052120D607B017A007923120F167B01E7
:1013F0007A0079231217347F101217D990004F7496
:10140000FFF0A37418F0A374C5F0900032E0FCA3C1
:10141000E0FDA3E0FEA3E0FF900052120D607B010F
:101420007A00790C120F167B017A00790C121734AE
:10143000900001E004F07006900000E004F0C3901A
:101440000001E09404900000E06480948050030266
:1014500014ED900002120D6C00000000E4900036C4
:10146000F0A3F0900002E0FCA3E0FDA3E0FEA3E007
:10147000FFC004C005C006C007900036E0FEA3E030
:101480007802C333CE33CED8F92438F58274003EC7
:10149000F583E0F8A3E0F9A3E0FAA3E0FBD007D0DE
:1014A00006D005D004120807900002120D609000CB
:1014B00037E004F07006900036E004F0900036E06B
:1014C0007004A3E06405709BE4FBFA798078409097
:1014D0000002E0FCA3E0FDA3E0FEA3E0FF120A018E
:1014E000900032120D60E4900000F0A3F07F407E87
:1014F000421218A902133EE490007DF090007DE0B6
:1015000004F0E0B4FFF6D2A0D2A1D2A2D2A3900000
:101510007D740DF0C2A020A4037401F020A50690F4
:10152000007D7402F020A60690007D7403F0D2A026
:10153000C2A120A40690007D7404F020A5069000AE
:101540007D7405F020A60690007D7406F0D2A1C23D
:10155000A220A40690007D7407F020A50690007DCF
:101560007408F020A60690007D7409F0D2A2C2A3F0
:1015700020A40690007D740AF020A505E490007D6B
:10158000F020A60690007D740CF0D2A390007DE0C0
:10159000FF22787FE4F6D8FD7581210215D9021368
:1015A00034E493A3F8E493A34003F68001F208DF48
:1015B000F48029E493A3F85407240CC8C333C4541B
:1015C0000F4420C8834004F456800146F6DFE480CF
:1015D0000B01020408102040809018E8E47E01937B
:1015E00060BCA3FF543F30E509541FFEE493A360A1
:1015F000010ECF54C025E060A840B8E493A3FAE4FC
:1016000093A3F8E493A3C8C582C8CAC583CAF0A34C
:10161000C8C582C8CAC583CADFE9DEE780BE9000BC
:1016200081EBF0A3EAF0A3E9F0E4A3F0900084E0FA
:10163000C39DEC6480F874809850421218DAEF640D
:101640000D6004EFB40A18900081E0FBA3E0FAA358
:10165000E0F9A3E0F582758300E4120D30801E905E
:101660000081E0FBA3E0FAA3E0F9A3E0F582758333
:1016700000EF120D30900084E004F080AF90008104
:10168000E0FBA3E0FAA3E0F9AE04AF058F828E83FE
:10169000E4020D30C2C0C2C1758030D2C27F2C7E40
:1016A000011218A9C2C27F641E1218A9D2C27F2CCF
:1016B0000E1218A9C2C27F641E1218A9D2C27F2CB2
:1016C0000E1218A9C2C27F641E1218A975803812A2
:1016D00018A27580081218A27580011218A27580D0
:1016E000061218A275800C1218A2E4900080F02255
:1016F000C2D5E830E70FB2D5E4C39BFBE49AFAE425
:1017000099F9E498F8EC30E717B2D5121726120EC3
:101710001FE4C39BFBE49AFAE499F9E498F8800388
:10172000120E1F30D50DE4C39FFFE49EFEE49DFD25
:10173000E49CFC2290004CEBF0A3EAF0A3E9F0E477
:1017400090007CF090007CE0FFC39420502190003A
:101750004CE0FBA3E0FAA3E0F98F82758300120C42
:10176000F1FF600B12177090007CE004F080D5222E
:1017700090004FEFF0900080E0B410047F108009DB
:10178000900080E0B42005E4FF1217D9D2C0C2C196
:1017900090004FE0F580D2C27F327E001218A490F4
:1017A0000080E004F022900085EBF0A3EAF0A3E9CA
:1017B000F0E4FE900085E0FBA3E0FAA3E0F98E825E
:1017C000758300120CF1FF60061218D20E80E47FC0
:1017D0000D1218D27F0A0218D2900080E0C3942024
:1017E0005028EFF0C394105005E02480800690004C
:1017F00080E024B0F580C2C0C2C1D2C27F647E0046
:101800001218A9C2C27F321218A92243F60175F339
:101810002043F30853F3EFAFF5EF75F004A4ADF4F4
:101820007C002DFEEC35F090007EF0A3CEF0900011
:101830007EE0FEA3E0FF2243892053892FC29FD27E
:101840009E438780AB07AA06E4F9F87F247EF4FD67
:10185000FC1216F0EFF404F58DD29CD28E22EFB478
:101860000A07740D121869740A309811A899B813F0
:101870000CC2983098FDA899C298B811F63099FD1D
:10188000C299F59922C2C0C2C1758001D2C27F320D
:101890007E001218A9C2C27F641218A9E4900080C9
:1018A000F022D2C21218A9C2C2E4FDFCC3ED9FEC23
:1018B0009E50070DBD00010C80F22274656D7020F2
:1018C0003D2025660061766572616765203D2025B3
:1018D00066008F993099FDC299223098FDAF99C268
:0E18E0009822900080E0FF2242007E0000006F
:00000001FF
