:030000000209B83A
:0C09B800787FE4F6D8FD7581070209FF86
:100CF0007F017E007C007D010DBD00010CED6433A1
:0E0D00004C70F50FBF00010EEF64654E70E6FB
:010D0E0022C2
:100ABA00D2A0D2A1D2A3C2A020A40375900120A5DE
:100ACA000375900320A603759007D2A0120CF0C2FA
:100ADA00A120A40375900F20A50375901F20A603DB
:100AEA0075903FD2A1120CF0C2A220A40375907F88
:100AFA0020A5037590FF20A6037590EED2A2120CD2
:100B0A00F0C2A320A4037590F120A503E4F5902078
:0C0B1A00A60375902AD2A3120CF0809460
:050D5B0042000200004F
:070D2C00D2C2120D33C2C256
:100D3300E4FDFCC3ED9FEC9E50070DBD00010C804C
:010D4300F2BD
:010D4400228C
:100B2600C2C0C2C1758030D2C27F2C7E01120D3385
:100B3600C2C27F641E120D33D2C27F2C0E120D3339
:100B4600C2C27F641E120D33D2C27F2C0E120D3329
:100B5600C2C27F641E120D33758038120D2C75804B
:100B660008120D2C758001120D2C758006120D2CA5
:0C0B760075800C120D2CE4900004F0229D
:100C020090000FEFF0900004E0B410047F10800910
:100C1200900004E0B42005E4FF120C6BD2C0C2C104
:100C220090000FE0F580D2C27F327E00120D2E902E
:060C32000004E004F022C2
:0B0BC600900009EBF0A3EAF0A3E9F0B7
:100BD100E4900000F0900000E0FFC39420502190C9
:100BE1000009E0FBA3E0FAA3E0F98F82758300120C
:100BF1000800FF600B120C02900000E004F080D5A9
:010C010022D0
:100D0F00C2C0C2C1758001D2C27F327E00120D33C4
:0D0D1F00C2C27F64120D33E4900004F02284
:060D5500900004E0FF2203
:100C6B00900004E0C394205028EFF0C3941050057B
:100C7B00E024808006900004E024B0F580C2C0C25E
:100C8B00C1D2C27F647E00120D33C2C27F32120DFD
:020C9B00332202
:10091D00E4900001F0900001E004F0E0B4FFF6D2A5
:10092D00A0D2A1D2A2D2A3900001740DF0C2A0203A
:10093D00A4037401F020A5069000017402F020A616
:10094D00069000017403F0D2A0C2A120A40690006D
:10095D00017404F020A5069000017405F020A60690
:10096D009000017406F0D2A1C2A220A4069000014D
:10097D007407F020A5069000017408F020A60690DB
:10098D0000017409F0D2A2C2A320A4069000017444
:10099D000AF020A505E4900001F020A606900001C4
:0A09AD00740CF0D2A3900001E0FFEB
:0109B700221D
:100C9D0043F60175F32043F30853F3EFAFF5EF750A
:100CAD00F004A4ADF47C002DFEEC35F0900002F0C4
:0B0CBD00A3CEF0900002E0FEA3E0FFD9
:010CC8002209
:100CC90043892053892FC29FD29E438780AB07AAAD
:100CD90006E4F9F87F247EF4FDFC120B82EFF4049C
:070CE900F58DD29CD28E2292
:080D45008F993099FDC299223B
:0B0C380090000CEBF0A3EAF0A3E9F041
:100C4300E4FE90000CE0FBA3E0FAA3E0F98E8275CA
:100C53008300120800FF6006120D450E80E47F0D2D
:080C6300120D457F0A020D4548
:070D4D003098FDAF99C29838
:010D5400227C
:0B0A4400900005EBF0A3EAF0A3E9F03E
:100A4F00E4A3F0900008E0C39DEC6480F8748098F4
:100A5F005042120D4DEF640D6004EFB40A18900070
:100A6F0005E0FBA3E0FAA3E0F9A3E0F582758300AC
:100A7F00E412082D801E900005E0FBA3E0FAA3E02E
:100A8F00F9A3E0F582758300EF12082D900008E0BE
:100A9F0004F080AF900005E0FBA3E0FAA3E0F9AE0D
:0B0AAF0004AF058F828E83E402082D47
:1009C400020ABAE493A3F8E493A34003F68001F285
:1009D40008DFF48029E493A3F85407240CC8C33334
:1009E400C4540F4420C8834004F456800146F6DF03
:1009F400E4800B0102040810204080900D5BE47E2B
:100A0400019360BCA3FF543F30E509541FFEE493F7
:100A1400A360010ECF54C025E060A840B8E493A3BE
:100A2400FAE493A3F8E493A3C8C582C8CAC583CAE9
:100A3400F0A3C8C582C8CAC583CADFE9DEE780BEA1
:010D60000092
:10080000BB010CE58229F582E5833AF583E02250AD
:1008100006E92582F8E622BBFE06E92582F8E222F7
:0D082000E58229F582E5833AF583E4932211
:10082D00F8BB010DE58229F582E5833AF583E8F001
:10083D00225006E92582C8F622BBFE05E92582C8AD
:02084D00F22295
:100B8200C2D5E830E70FB2D5E4C39BFBE49AFAE49E
:100B920099F9E498F8EC30E717B2D5120BB81208BD
:100BA2008BE4C39BFBE49AFAE499F9E498F8800396
:100BB20012088B30D50DE4C39FFFE49EFEE49DFD39
:040BC200E49CFC2291
:10084F0075F008758200EF2FFFEE33FECD33CDCC60
:10085F0033CCC58233C5829BED9AEC99E5829840E3
:10086F000CF582EE9BFEED9AFDEC99FC0FD5F0D6C0
:10087F00E4CEFBE4CDFAE4CCF9A88222B800C1B9EA
:10088F000059BA002DEC8BF084CFCECDFCE5F0CB28
:10089F00F97818EF2FFFEE33FEED33FDEC33FCEB61
:1008AF0033FB10D703994004EB99FB0FD8E5E4F91C
:1008BF00FA227818EF2FFFEE33FEED33FDEC33FC09
:1008CF00C933C910D7059BE99A4007EC9BFCE99AFD
:1008DF00F90FD8E0E4C9FAE4CCFB2275F010EF2F42
:1008EF00FFEE33FEED33FDCC33CCC833C810D70742
:1008FF009BEC9AE899400AED9BFDEC9AFCE899F87D
:0E090F000FD5F0DAE4CDFBE4CCFAE4C8F9220F
:00000001FF
