:030000000209B83A
:10080000BB010CE58229F582E5833AF583E02250AD
:1008100006E92582F8E622BBFE06E92582F8E222F7
:10082000E58229F582E5833AF583E49322F8BB015A
:100830000DE58229F582E5833AF583E8F02250063A
:10084000E92582C8F622BBFE05E92582C8F2227599
:10085000F008758200EF2FFFEE33FECD33CDCC33A1
:10086000CCC58233C5829BED9AEC99E58298400C09
:10087000F582EE9BFEED9AFDEC99FC0FD5F0D6E4E7
:10088000CEFBE4CDFAE4CCF9A88222B800C1B900CD
:1008900059BA002DEC8BF084CFCECDFCE5F0CBF92E
:1008A0007818EF2FFFEE33FEED33FDEC33FCEB3326
:1008B000FB10D703994004EB99FB0FD8E5E4F9FA54
:1008C000227818EF2FFFEE33FEED33FDEC33FCC939
:1008D00033C910D7059BE99A4007EC9BFCE99AF9CC
:1008E0000FD8E0E4C9FAE4CCFB2275F010EF2FFF3B
:1008F000EE33FEED33FDCC33CCC833C810D7079BA5
:10090000EC9AE899400AED9BFDEC9AFCE899F80F07
:10091000D5F0DAE4CDFBE4CCFAE4C8F922E49000A7
:1009200001F0900001E004F0E0B4FFF6D2A0D2A103
:10093000D2A2D2A3900001740DF0C2A020A403742F
:1009400001F020A5069000017402F020A606900098
:10095000017403F0D2A0C2A120A406900001740487
:10096000F020A5069000017405F020A60690000175
:100970007406F0D2A1C2A220A4069000017407F070
:1009800020A5069000017408F020A60690000174CE
:1009900009F0D2A2C2A320A406900001740AF0209C
:1009A000A505E4900001F020A606900001740CF06B
:1009B000D2A3900001E0FF22787FE4F6D8FD758194
:1009C000070209FF020C84E493A3F8E493A3400315
:1009D000F68001F208DFF48029E493A3F854072499
:1009E0000CC8C333C4540F4420C8834004F4568059
:1009F0000146F6DFE4800B010204081020408090DD
:100A00000CF7E47E019360BCA3FF543F30E509542A
:100A10001FFEE493A360010ECF54C025E060A84000
:100A2000B8E493A3FAE493A3F8E493A3C8C582C8F7
:100A3000CAC583CAF0A3C8C582C8CAC583CADFE9CC
:100A4000DEE780BE900005EBF0A3EAF0A3E9F0E456
:100A5000A3F0900008E0C39DEC6480F87480985087
:100A600042120CE9EF640D6004EFB40A189000051F
:100A7000E0FBA3E0FAA3E0F9A3E0F582758300E4CC
:100A800012082D801E900005E0FBA3E0FAA3E0F918
:100A9000A3E0F582758300EF12082D900008E004B2
:100AA000F080AF900005E0FBA3E0FAA3E0F9AE040C
:100AB000AF058F828E83E402082DC2C0C2C175804B
:100AC00030D2C27F2C7E01120CCFC2C27F641E12B4
:100AD0000CCFD2C27F2C0E120CCFC2C27F641E126A
:100AE0000CCFD2C27F2C0E120CCFC2C27F641E125A
:100AF0000CCF758038120CC8758008120CC8758030
:100B000001120CC8758006120CC875800C120CC836
:100B1000E4900004F022C2D5E830E70FB2D5E4C378
:100B20009BFBE49AFAE499F9E498F8EC30E717B201
:100B3000D5120B4C12088BE4C39BFBE49AFAE499A0
:100B4000F9E498F8800312088B30D50DE4C39FFFB9
:100B5000E49EFEE49DFDE49CFC22900009EBF0A3E2
:100B6000EAF0A3E9F0E4900000F0900000E0FFC399
:100B700094205021900009E0FBA3E0FAA3E0F98F54
:100B800082758300120800FF600B120B9690000024
:100B9000E004F080D522900010EFF0900004E0B463
:100BA00010047F108009900004E0B42005E4FF12D7
:100BB0000BFFD2C0C2C1900010E0F580D2C27F32DC
:100BC0007E00120CCA900004E004F02290000CEBAE
:100BD000F0A3EAF0A3E9F0E4FE90000CE0FBA3E050
:100BE000FAA3E0F98E82758300120800FF600612F6
:100BF0000CE10E80E47F0D120CE17F0A020CE19003
:100C00000004E0C394205028EFF0C394105005E096
:100C100024808006900004E024B0F580C2C0C2C1E8
:100C2000D2C27F647E00120CCFC2C27F32120CCFC0
:100C30002243F60175F32043F30853F3EFAFF5EFCA
:100C400075F004A4ADF47C002DFEEC35F0900002AC
:100C5000F0A3CEF0900002E0FEA3E0FF2243892043
:100C600053892FC29FD29E438780AB07AA06E4F91F
:100C7000F87F247EF4FDFC120B16EFF404F58DD200
:100C80009CD28E22120ABA7FB07E04120C5D30987C
:100C9000FD120CE990000FEFF0120B96C299900034
:100CA0000FE0F5993099FDC29880E3C2C0C2C175CA
:100CB0008001D2C27F327E00120CCFC2C27F64128A
:100CC0000CCFE4900004F022D2C2120CCFC2C2E4D6
:100CD000FDFCC3ED9FEC9E50070DBD00010C80F2A2
:100CE000228F993099FDC299223098FDAF99C29810
:0D0CF00022900004E0FF22420002000000FC
:00000001FF
