:03000000020E20CD
:0C0E2000787FE4F6D8FD758120020DA952
:100DA900900008120BF03C23D70AE4FFFE7D207C5B
:100DB90041900004E0F8A3E0F9A3E0FAA3E0FB12F4
:100DC90008F8120C7F900000120BE4E4FFFE7DFF8F
:100DD9007C42900000E0F8A3E0F9A3E0FAA3E0FB6D
:100DE9001208F8E4FBFA79FF78421208071209FEA3
:100DF9008F90900004E0FCA3E0FDA3E0FEA3E0FFD8
:100E0900A3E0F8A3E0F9A3E0FAA3E0FB1208079036
:070E19000004120BE48093BA
:10080000020A6AE86480F8E933E83360110460F0B2
:10081000ED33EC337009E8FCE9FDEAFEEBFF22045E
:1008200060DED3EB9FEA9EE99DE8C2E78CF0C2F759
:1008300095F0400CE8CCF8E9CDF9EACEFAEBCFFB25
:10084000120A3585D0F05804700320D5B3E804703F
:10085000075002B2D5020A7492D5EC0460F7E4CCDA
:10086000C0E0C398F8603B94186008400DD0E0FBEE
:10087000020A4CE4FBFAC9FC8028E830E406E4C92B
:10088000FBE4CAFCE830E305E4C9CACBFCE8540742
:100890006010F8C3E913F9EA13FAEB13FBEC13FC4D
:1008A000D8F130F52FC3E49CFCEF9BFFEE9AFEEDF0
:1008B00099FDD0E0FBEF4E4D4C701222DB03020A93
:1008C00071EC2CFCEF33FFEE33FEED33FDED30E742
:1008D000EB020A4CEF2BFFEE3AFEED39FDD0E0FBC8
:1008E00050130BBB0003020A74ED13FDEE13FEEF71
:0808F00013FFEC13FC020A4C9B
:1008F800EC4D6011E8497017ED33EC3304600DE4FA
:10090800FCFFFEFD22E933E8330470F8020A6A129C
:100918000A3558046009E4CC24815006285009029D
:100928000A74284003020A71C0E0EB4A7044B98097
:1009380006D0E0FB020A60EF4E701CBD8008EBFF9A
:10094800EAFEE9FD80EBE98DF0A4FEE5F00209E19D
:10095800E9CDF9EAFEEBFFEF89F0A4FCE5F0CE89DA
:10096800F0A42EFFE435F0CD89F0A42DFEE435F097
:100978008067EF4E7005BD80D780C3EF8BF0A4ACC5
:10098800F0EE8BF0A42CFCE435F0F8EF8AF0A42C00
:10099800E5F038FCE433CB8DF0A42CFCE5F03BF813
:1009A800EE8AF0A42CFCE5F038F8E433CF89F0A403
:1009B8002CFCE5F038CF3400CE89F0A42FFFE5F009
:1009C8003EFEE433C98DF0A42EFEE5F039CD8AF061
:1009D800A42FFFE5F03EFEE43DFD33D0E0FB5007D9
:1009E8000BBB000F020A74EC2CFCEF33FFEE33FE56
:0609F800ED33FD020A4C84
:1009FE00EDD2E7CD33EC3392D524814006E4FFFEF1
:100A0E00FDFC22FCE4CFCECDCC24E0501174FF804F
:100A1E00EDC3CC13CCCD13CDCE13CECF13CF0470EC
:070A2E00F030D5DE020BAA37
:100C21003A70FA83BCAAE9E43E81E0F8BF9DE9E6A7
:100C31003F80000039283C1ABB9969663DA335E322
:100C4100BF255DE73FC90FDB418DDBCCC44936EEE3
:100C510045C9913FC5B0F83D3F800000C317F53449
:100C6100452FFA73C60AFDDD120D2A04A2E1920096
:100C71001420E015900C217404120B5D8030120DCC
:100C81002A30E102B20020E0EBA883A98290001093
:100C9100120BE489828883900C357404120B5D85F4
:100CA10082F0900010120BC885F0821208F8ED4C0A
:100CB1006007300004EC6480FC22120D2AC0E0A819
:100CC10083A982900010120BE489828883900C59C9
:100CD1007403120B5D8582F0900010120BC885F031
:100CE100821208F8900010E0CCF0A3E0CDF0A3E070
:100CF100CEF0A3E0CFF0900C497403120B5DD082CB
:100D01008582F0900010120BC885F082E58230E0F8
:100D110007120A82B2008096EFCBFFEECAFEEDC940
:100D2100FDECC8FC120A828085ED33EC547FCC3394
:100D3100920024605007D0E0D0E0020A6A7B837AF7
:100D4100F97922783E1208F8EDF933ECF833248171
:100D51005011EFFBEEFA1209FE120B1FECB2E7FC89
:100D6100120807ED33EC33602F2403F8C313FCEDB5
:100D710092E7FDE82481E4501FECF8EDF9EEFAEF7B
:100D8100FB1209FEEF04C2E0FCF582120B29ECB262
:100D9100E7FC120807E58203FAED33EC3360071430
:080DA10013FCED92E7FDEA22CC
:100A3500E9D2E7C933E833F892D5EDD2E7CD33EC07
:070A450033FC5002B2D52280
:100A4C00EC30E7100FBF000C0EBE00080DBD00040B
:100A5C000BEB6014A2D5EB13FCED92E7FD2274FFB7
:100A6C00FCFDFEFF22E480F8A2D574FF13FC7D8010
:030A7C00E480EF24
:100A7F00020A74EC5D046005E859047003020A6A07
:100A8F00120A35580460F6EC4860F2EC7004FDFE73
:100A9F00FF22C860DB2481C85009C398600250064A
:100AAF00020A719850CAF582E9294B4A7005AB8248
:100ABF00020A6075F0007C1A7880C3EF9BEE9AED06
:100ACF0099400DC3EF9BFFEE9AFEED99FDE842F0C2
:100ADF00DC23ACF0D0E0FFD0E0FED0E0FDAB822015
:100AEF00E7101BEB60BAEC2CFCEF33FFEE33FEED9F
:100AFF0033FD020A4CE803F830E705C0F075F0004B
:100B0F00EF2FFFEE33FEED33FD40B830E7C280AA82
:100B1F0075F020800E75F010800575F0087D007E51
:100B2F00007F003392D530D503120BAAEC3340105F
:100B3F00EF33FFEE33FEED33FDEC33FCD5F0ED225A
:0E0B4F00E5F0247EA2D513CC92E7CDCEFF2296
:100B5D00C0E0EFFBEEFAEDF9ECF81208F8D0E0F595
:100B6D00F0EFFBEEFAEDF9ECF8120BB8A3A3A3A38B
:100B7D00E8C0E0E9C0E0EAC0E0EBC0E0C0F0120878
:100B8D00F8120BD4A3A3A3A3120807D0F0D0E0FB57
:0D0B9D00D0E0FAD0E0F9D0E0F8D5F0D42295
:0E0BAA00C3E49FFFE49EFEE49DFDE49CFC225C
:100BB800E493FC740193FD740293FE740393FF2283
:0C0BC800E0F8A3E0F9A3E0FAA3E0FB22B0
:100BD400E493F8740193F9740293FA740393FB2277
:0C0BE400ECF0A3EDF0A3EEF0A3EFF02284
:100BF000A8828583F0D083D082120C07120C0712D2
:100C00000C07120C07E473E493A3C583C5F0C583F6
:100C1000C8C582C8F0A3C583C5F0C583C8C582C84E
:010C200022B1
:00000001FF
