:030000000209B83A
:10080000BB010CE58229F582E5833AF583E02250AD
:1008100006E92582F8E622BBFE06E92582F8E222F7
:10082000E58229F582E5833AF583E49322F8BB015A
:100830000DE58229F582E5833AF583E8F02250063A
:10084000E92582C8F622BBFE05E92582C8F2227599
:10085000F008758200EF2FFFEE33FECD33CDCC33A1
:10086000CCC58233C5829BED9AEC99E58298400C09
:10087000F582EE9BFEED9AFDEC99FC0FD5F0D6E4E7
:10088000CEFBE4CDFAE4CCF9A88222B800C1B900CD
:1008900059BA002DEC8BF084CFCECDFCE5F0CBF92E
:1008A0007818EF2FFFEE33FEED33FDEC33FCEB3326
:1008B000FB10D703994004EB99FB0FD8E5E4F9FA54
:1008C000227818EF2FFFEE33FEED33FDEC33FCC939
:1008D00033C910D7059BE99A4007EC9BFCE99AF9CC
:1008E0000FD8E0E4C9FAE4CCFB2275F010EF2FFF3B
:1008F000EE33FEED33FDCC33CCC833C810D7079BA5
:10090000EC9AE899400AED9BFDEC9AFCE899F80F07
:10091000D5F0DAE4CDFBE4CCFAE4C8F922E49000A7
:1009200034F0900034E004F0E0B4FFF6D2A0D2A19D
:10093000D2A2D2A3900034740DF0C2A020A40374FC
:1009400001F020A5069000347402F020A606900065
:10095000347403F0D2A0C2A120A406900034740421
:10096000F020A5069000347405F020A6069000340F
:100970007406F0D2A1C2A220A4069000347407F03D
:1009800020A5069000347408F020A6069000347468
:1009900009F0D2A2C2A320A406900034740AF02069
:1009A000A505E4900034F020A606900034740CF005
:1009B000D2A3900034E0FF22787FE4F6D8FD758161
:1009C000070209FF020CEEE493A3F8E493A34003AB
:1009D000F68001F208DFF48029E493A3F854072499
:1009E0000CC8C333C4540F4420C8834004F4568059
:1009F0000146F6DFE4800B010204081020408090DD
:100A00000C5DE47E019360BCA3FF543F30E50954C4
:100A10001FFEE493A360010ECF54C025E060A84000
:100A2000B8E493A3FAE493A3F8E493A3C8C582C8F7
:100A3000CAC583CAF0A3C8C582C8CAC583CADFE9CC
:100A4000DEE780BE900038EBF0A3EAF0A3E9F0E423
:100A5000A3F090003BE0C39DEC6480F87480985054
:100A600042120CFEEF640D6004EFB40A18900038D7
:100A7000E0FBA3E0FAA3E0F9A3E0F582758300E4CC
:100A800012082D801E900038E0FBA3E0FAA3E0F9E5
:100A9000A3E0F582758300EF12082D90003BE0047F
:100AA000F080AF900038E0FBA3E0FAA3E0F9AE04D9
:100AB000AF058F828E83E402082DC2C0C2C175804B
:100AC00030D2C27F2C7E01120CD2C2C27F641E12B1
:100AD0000CD2D2C27F2C0E120CD2C2C27F641E1264
:100AE0000CD2D2C27F2C0E120CD2C2C27F641E1254
:100AF0000CD2758038120CCB758008120CCB758027
:100B000001120CCB758006120CCB75800C120CCB2D
:100B1000E4900037F022C2D5E830E70FB2D5E4C345
:100B20009BFBE49AFAE499F9E498F8EC30E717B201
:100B3000D5120B4C12088BE4C39BFBE49AFAE499A0
:100B4000F9E498F8800312088B30D50DE4C39FFFB9
:100B5000E49EFEE49DFDE49CFC2290003CEBF0A3AF
:100B6000EAF0A3E9F0E4900033F0900033E0FFC333
:100B70009420502190003CE0FBA3E0FAA3E0F98F21
:100B800082758300120800FF600B120B96900033F1
:100B9000E004F080D522900042EFF0900037E0B4FE
:100BA00010047F108009900037E0B42005E4FF12A4
:100BB0000BFFD2C0C2C1900042E0F580D2C27F32AA
:100BC0007E00120CCD900037E004F02290003FEB45
:100BD000F0A3EAF0A3E9F0E4FE90003FE0FBA3E01D
:100BE000FAA3E0F98E82758300120800FF600612F6
:100BF0000CF60E80E47F0D120CF67F0A020CF690C4
:100C00000037E0C394205028EFF0C394105005E063
:100C100024808006900037E024B0F580C2C0C2C1B5
:100C2000D2C27F647E00120CD2C2C27F32120CD2BA
:100C30002243F60175F32043F30853F3EFAFF5EFCA
:100C400075F004A4ADF47C002DFEEC35F090003579
:100C5000F0A3CEF0900035E0FEA3E0FF226020007C
:100C60001320202020202020202020202020202091
:100C70002020202020202020202020202020202074
:100C80000042003500000043892053892FC29FD2C3
:100C90009E438780AB07AA06E4F9F87F247EF4FD23
:100CA000FC120B16EFF404F58DD29CD28E22C2C03A
:100CB000C2C1758001D2C27F327E00120CD2C2C284
:100CC0007F64120CD2E4900037F022D2C2120CD210
:100CD000C2C2E4FDFCC3ED9FEC9E50070DBD0001B8
:100CE0000C80F22243D84043DA4043DA0222120C4D
:100CF000E48580FA80FB8F993099FDC29922309863
:0C0D0000FDAF99C29822900037E0FF225E
:00000001FF
