:030000000215499D
:10080000020A0BE86480F8E933E83360110460F011
:10081000ED33EC337009E8FCE9FDEAFEEBFF22045E
:1008200060DED3EB9FEA9EE99DE8C2E78CF0C2F759
:1008300095F0400CE8CCF8E9CDF9EACEFAEBCFFB25
:100840001209D685D0F05804700320D5B3E804709F
:10085000075002B2D5020A1592D5EC0460F7E4CC39
:10086000C0E0C398F8603B94186008400DD0E0FBEE
:100870000209EDE4FBFAC9FC8028E830E406E4C98B
:10088000FBE4CAFCE830E305E4C9CACBFCE8540742
:100890006010F8C3E913F9EA13FAEB13FBEC13FC4D
:1008A000D8F130F52FC3E49CFCEF9BFFEE9AFEEDF0
:1008B00099FDD0E0FBEF4E4D4C701222DB03020A93
:1008C00012EC2CFCEF33FFEE33FEED33FDED30E7A1
:1008D000EB0209EDEF2BFFEE3AFEED39FDD0E0FB28
:1008E00050130BBB0003020A15ED13FDEE13FEEFD0
:1008F00013FFEC13FC0209ED020A15EC5D04600520
:10090000E859047003020A0B1209D6580460F6EC89
:100910004860F2EC7004FDFEFF22C860DB2481C851
:100920005009C39860025006020A129850CAF58214
:10093000E9294B4A7005AB82020A0175F0007C1A66
:100940007880C3EF9BEE9AED99400DC3EF9BFFEECD
:100950009AFEED99FDE842F0DC23ACF0D0E0FFD048
:10096000E0FED0E0FDAB8220E7101BEB60BAEC2C80
:10097000FCEF33FFEE33FEED33FD0209EDE803F843
:1009800030E705C0F075F000EF2FFFEE33FEED33DA
:10099000FD40B830E7C280AA75F020800E75F010D7
:1009A000800575F0087D007E007F003392D530D53C
:1009B00003120D52EC334010EF33FFEE33FEED33F4
:1009C000FDEC33FCD5F0ED22E5F0247EA2D513CC6E
:1009D00092E7CDCEFF22E9D2E7C933E833F892D5CA
:1009E000EDD2E7CD33EC33FC5002B2D522EC30E748
:1009F000100FBF000C0EBE00080DBD00040BEB6015
:100A000014A2D5EB13FCED92E7FD2274FFFCFDFE72
:100A1000FF22E480F8A2D574FF13FC7D80E480EF10
:100A2000F920E73624F950037907E4F42402FBE5C2
:100A300082158270021583DBF6E024FB501BE9600F
:100A400014E4F0E582158270021583E004F0B40A24
:100A500008E4F0D9EE7401F00A22C2D522ED33EC9D
:100A60003392D5FA602AB4FF33EDC2E77BFF60060C
:100A70007A0A7982E4227A0A798B20D5047A0A7973
:100A800086224E614E002B494E46002D494E4600AF
:100A9000E47A08F0A3DAFC7B00740722C083C082EA
:100AA000ECC0E0EDC0E0EEC0E0EFC0E0EA75F010B1
:100AB000A4CAABF075F04DA42BFBE435F0FCEA249E
:100AC00010FAEB34C5FBEC34D9FCEDC2E7FF75F04E
:100AD00056A4F42411C5F0F434C58FF0A42AE5F02F
:100AE0003BE43CF020E714120C98D0E0FFD0E0FE8D
:100AF000D0E0FDD0E0FC1208FB8014F404120C9846
:100B0000D0E0FFD0E0FED0E0FDD0E0FC120B62D0E0
:100B100082D083E0FAEDD2E7CD33EC332482FBE4DC
:100B2000C3CF33CFCE33CECD33CD33DBF37B07759D
:100B3000F00A846004F0A31B0AE5F0F0A38FF074C0
:100B40000AA4FFACF08EF0740AA42CFEACF05001A5
:100B50000C8DF0740AA42CFDE435F0F0A3DBDE74F8
:100B60000722EC4D6011E8497017ED33EC33046057
:100B70000DE4FCFFFEFD22E933E8330470F8020ABD
:100B80000B1209D658046009E4CC24815006285081
:100B900009020A15284003020A12C0E0EB4A704419
:100BA000B98006D0E0FB020A01EF4E701CBD800840
:100BB000EBFFEAFEE9FD80EBE98DF0A4FEE5F00233
:100BC0000C4BE9CDF9EAFEEBFFEF89F0A4FCE5F070
:100BD000CE89F0A42EFFE435F0CD89F0A42DFEE4FB
:100BE00035F08067EF4E7005BD80D780C3EF8BF086
:100BF000A4ACF0EE8BF0A42CFCE435F0F8EF8AF016
:100C0000A42CE5F038FCE433CB8DF0A42CFCE5F00B
:100C10003BF8EE8AF0A42CFCE5F038F8E433CF89F9
:100C2000F0A42CFCE5F038CF3400CE89F0A42FFFDF
:100C3000E5F03EFEE433C98DF0A42EFEE5F039CD9B
:100C40008AF0A42FFFE5F03EFEE43DFD33D0E0FB4B
:100C500050070BBB000F020A15EC2CFCEF33FFEE24
:100C600033FEED33FD0209ED3F800000412000001E
:100C700042C80000447A0000461C400047C35000B0
:100C8000497424004B1896804CBEBC205A0E1BCAD7
:100C90006753C21C749DC5AEFB60065407601C23DD
:100CA00023120CC6EB54386009120CB2120CC1129C
:100CB0000B62ECF8EDF9EEFAEFCB22EB120CC180EF
:100CC000F1543803241C900C68FE93FC0EEE93FD47
:100CD0000EEE930ECE93FF22BB010689828A83E03B
:100CE000225002E722BBFE02E32289828A83E49338
:100CF00022BB010CE58229F582E5833AF583E022E7
:100D00005006E92582F8E622BBFE06E92582F8E2D4
:100D100022E58229F582E5833AF583E49322BB013B
:100D20000689828A83F0225002F722BBFE01F32259
:100D3000F8BB010DE58229F582E5833AF583E8F0F9
:100D4000225006E92582C8F622BBFE05E92582C8A5
:100D5000F222C3E49FFFE49EFEE49DFDE49CFC229E
:100D6000ECF0A3EDF0A3EEF0A3EFF022A8828583D0
:100D7000F0D083D082120D83120D83120D83120DD9
:100D800083E473E493A3C583C5F0C583C8C582C853
:100D9000F0A3C583C5F0C583C8C582C822F8E0FBAF
:100DA000A3A3E0F925F0F0E582158270021583E037
:100DB000FA38F022EBF0A3EAF0A3E9F022D083D0D6
:100DC00082F8E4937012740193700DA3A393F874E6
:100DD0000193F5828883E4737402936860EFA3A3A0
:100DE000A380DF75F008758200EF2FFFEE33FECD94
:100DF00033CDCC33CCC58233C5829BED9AEC99E5DB
:100E00008298400CF582EE9BFEED9AFDEC99FC0F6A
:100E1000D5F0D6E4CEFBE4CDFAE4CCF9A88222B832
:100E200000C1B90059BA002DEC8BF084CFCECDFCB7
:100E3000E5F0CBF97818EF2FFFEE33FEED33FDEC44
:100E400033FCEB33FB10D703994004EB99FB0FD82D
:100E5000E5E4F9FA227818EF2FFFEE33FEED33FDCB
:100E6000EC33FCC933C910D7059BE99A4007EC9BCA
:100E7000FCE99AF90FD8E0E4C9FAE4CCFB2275F05A
:100E800010EF2FFFEE33FEED33FDCC33CCC833C86B
:100E900010D7079BEC9AE899400AED9BFDEC9AFC71
:100EA000E899F80FD5F0DAE4CDFBE4CCFAE4C8F920
:100EB00022E508243CF582E43400F583E0050822AD
:100EC00090003930070390003CE475F001120D9D4D
:100ED000020CD82000E97F2ED2008018EF540F2496
:100EE00090D43440D4FF30040BEF24BFB41A005028
:100EF000032461FFE50960021509050CE50C700289
:100F0000050B30070E900039E475F001120D9DEFCE
:100F1000020D1E0218157403D2078003E4C207F500
:100F200008900039120DB4E4F509F50BF50CE5094C
:100F300060077F20120EF480F5750AFFC201C2001F
:100F4000C202C203C205C206C208120EC0FF700D63
:100F50003007057F00120F05AF0CAE0B22B4255FE2
:100F6000C2D5C204120EC0FF24D0B40A00501A75B4
:100F7000F00A780930D50508B6FF0106C6A426F6A2
:100F800020D5047002D20380D924CFB41A00EF50C8
:100F900004C2E5D2040211F7D20180C6D20080C09B
:100FA000D20280BCD2D580BAD20580B47F20120E86
:100FB000F42002077401B5090040F1120EB1FF12CE
:100FC0000EF4020F2ED208D2068095120EB1FB123B
:100FD0000EB1FA120EB1F94A4B700679F57A127B0E
:100FE000FF20022EE509602A7E008E8275830012A2
:100FF0000CF160060EEE650A70F0C2D5EBC0E0EAB7
:10100000C0E0E9C0E0EE121258D0E0F9D0E0FAD02A
:10101000E0FB120CD8FF60AAEBC0E0EAC0E0E9C038
:10102000E0120EF4D0E02401F9D0E03400FAD0E070
:10103000FBE50A0460DCD50AD98087D20280A212BF
:10104000123A60F7E50A700104120A20A90A600D3D
:10105000E50A600914F50A1212E2EF60F3EA30E7DC
:1010600002F404C3995079EAF4250A0430E701E454
:1010700004F50A800D12123A60C1EA050A250A1227
:101080000A20EA900068F030E701E4250A04D50A56
:101090000420050114121258E4C0E01212E290007C
:1010A00068E0601320E70714F0120EDC802204F0E1
:1010B000D0E014C0E07F00120EDCE50A6007120EDB
:1010C000D3150A800B300503120ED3D0E0020F2E89
:1010D000D0E00480C412123A609EE50A04120A208D
:1010E000900068EAF0E50A20050260010424041279
:1010F000125874FF04C0E01212E2120EDCE50A205E
:1011000005026003120ED3D0E0B50AE87F45120E47
:10111000E6900068E07F2B30E7047F2DF404C0E008
:10112000120EF4D0E075F00A84C0F0120EDDD0E0AB
:10113000120EDD020F2E791080027908C206C20855
:101140008008D2D5790A8004790AC2D5E50A0470EC
:1011500002F50AE4FAFDFEFF120EB1FC7B08200145
:1011600013120EB1FD7B1030000A120EB1FE120EEA
:10117000B1FF7B20EC3382D592D55013C3E430000D
:10118000069FFFE49EFEE42001039DFDE49CFCE439
:10119000CBF8C201EC700CCFCECDCCE824F8F870BF
:1011A000F38017C3EF33FFEE33FEED33FDEC33FC7A
:1011B000EB33FB994002FB0FD8E9EB300105F8D087
:1011C000E0C448B201C0E00AEC4D4E4F78207B00ED
:1011D00070C2EAB50A0040BCC0E012125AD0F0D08A
:1011E000E0200104C4C0E0C4B201C0F0120EDDD0A2
:1011F000F0D5F0EB020F2E120DBD0FCB5311365868
:101200000F9C4C0F9842113A4F1142441142490F22
:10121000B14311485510754610D545103F47131579
:10122000500FA02D0FA42E0FC72B0FA8230FC520E2
:1012300012FE2A0F604800000FBFE50AB4FF0375D5
:101240000A06120EB1FC120EB1FD120EB1FE120E04
:10125000B1FF900061020A5D790AA2D52003143023
:101260000509B910020404B9080104A2D520060238
:101270005001042002689202B509005034C0E07F9A
:10128000203003197F30A20272067205500F12122D
:10129000B1C202C206C205C2087F30800F3005030A
:1012A000E9C0E0120EF4300503D0E0F9D0E0B50952
:1012B000CC3005177F30B9100C120EF47F58300473
:1012C000077F788003B90803120EF43002057F2DE2
:1012D000020EF47F202008F87F2B2006F3229202D2
:1012E00080CF7F00B40700500B2461F582E4340006
:1012F000F583E0FF22286E756C6C2900D201120E76
:10130000B13001F8C201780930D50108F6020F604A
:101310002D50434958120EB12403B405004001E496
:1013200090131093120EE5743A120EE5D20375096C
:101330000402113612164BE4900000F0A3F01218CC
:101340003C1217C2900006EEF0A3EFF0FDAC06ECE5
:1013500012099DC004C005C006C007900000E0FE51
:10136000A3E07802C333CE33CED8F92425F58274B6
:10137000003EF583D007D006D005D004120D609052
:10138000003C74FFF0A37418F0A37459F0900006A9
:10139000E0FFA3E090003FCFF0A3EFF07B017A00E5
:1013A0007910120F167B017A0079101216EB7F105C
:1013B00012179090003C74FFF0A37418F0A37465AA
:1013C000F090001FE0FCA3E0FDA3E0FEA3E0FF908F
:1013D000003F120D607B017A007910120F167B011D
:1013E0007A0079101216EB900001E004F07006907C
:1013F0000000E004F0C3900001E09404900000E0DD
:101400006480948050030214A4900002120D6C00BA
:10141000000000E4900023F0A3F0900002E0FCA3A1
:10142000E0FDA3E0FEA3E0FFC004C005C006C007C6
:10143000900023E0FEA3E07802C333CE33CED8F988
:101440002425F58274003EF583E0F8A3E0F9A3E0DB
:10145000FAA3E0FBD007D006D005D004120807900D
:101460000002120D60900024E004F070069000234A
:10147000E004F0900023E07004A3E06405709BE4B6
:10148000FBFA79807840900002E0FCA3E0FDA3E045
:10149000FEA3E0FF1208FB90001F120D60E4900015
:1014A00000F0A3F07F407E4212187902133EE490D0
:1014B000006AF090006AE004F0E0B4FFF6D2A0D237
:1014C000A1D2A2D2A390006A740DF0C2A020A403FE
:1014D0007401F020A50690006A7402F020A6069020
:1014E000006A7403F0D2A0C2A120A40690006A741E
:1014F00004F020A50690006A7405F020A60690006E
:101500006A7406F0D2A1C2A220A40690006A7407F1
:10151000F020A50690006A7408F020A60690006AE4
:101520007409F0D2A2C2A320A40690006A740AF043
:1015300020A505E490006AF020A60690006A740CCD
:10154000F0D2A390006AE0FF22787FE4F6D8FD7520
:101550008121021590021334E493A3F8E493A3408D
:1015600003F68001F208DFF48029E493A3F854071E
:10157000240CC8C333C4540F4420C8834004F45619
:10158000800146F6DFE4800B010204081020408051
:1015900090188BE47E019360BCA3FF543F30E509B3
:1015A000541FFEE493A360010ECF54C025E060A851
:1015B00040B8E493A3FAE493A3F8E493A3C8C582E4
:1015C000C8CAC583CAF0A3C8C582C8CAC583CADF52
:1015D000E9DEE780BE90006EEBF0A3EAF0A3E9F04D
:1015E000E4A3F0900071E0C39DEC6480F8748098EF
:1015F00050421218A0EF640D6004EFB40A18900076
:101600006EE0FBA3E0FAA3E0F9A3E0F582758300A6
:10161000E4120D30801E90006EE0FBA3E0FAA3E020
:10162000F9A3E0F582758300EF120D30900071E0B0
:1016300004F080AF90006EE0FBA3E0FAA3E0F9AE07
:1016400004AF058F828E83E4020D30C2C0C2C17523
:101650008030D2C27F2C7E01121879C2C27F641EF4
:10166000121879D2C27F2C0E121879C2C27F641E62
:10167000121879D2C27F2C0E121879C2C27F641E52
:1016800012187975803812187275800812187275E0
:10169000800112187275800612187275800C12186B
:1016A00072E490006DF022C2D5E830E70FB2D5E4C5
:1016B000C39BFBE49AFAE499F9E498F8EC30E71755
:1016C000B2D51216DD120E1FE4C39BFBE49AFAE4B6
:1016D00099F9E498F88003120E1F30D50DE4C39FEA
:1016E000FFE49EFEE49DFDE49CFC22900039EBF0BB
:1016F000A3EAF0A3E9F0E4900069F0900069E0FF4C
:10170000C394205021900039E0FBA3E0FAA3E0F954
:101710008F82758300120CF1FF600B121727900067
:1017200069E004F080D52290003CEFF090006DE07D
:10173000B410047F10800990006DE0B42005E4FF30
:10174000121790D2C0C2C190003CE0F580D2C27F97
:10175000327E0012187490006DE004F02290007246
:10176000EBF0A3EAF0A3E9F0E4FE900072E0FBA343
:10177000E0FAA3E0F98E82758300120CF1FF600697
:101780001218980E80E47F0D1218987F0A0218989C
:1017900090006DE0C394205028EFF0C394105005E2
:1017A000E02480800690006DE024B0F580C2C0C2C5
:1017B000C1D2C27F647E00121879C2C27F32121871
:1017C000792243F60175F32043F30853F3EFAFF5A5
:1017D000EF75F004A4ADF47C002DFEEC35F0900024
:1017E0006BF0A3CEF090006BE0FEA3E0FF224389F4
:1017F0002053892FC29FD29E438780AB07AA06E45D
:10180000F9F87F247EF4FDFC1216A7EFF404F58DA1
:10181000D29CD28E22EFB40A07740D121820740ADB
:10182000309811A899B8130CC2983098FDA899C2A5
:1018300098B811F63099FDC299F59922C2C0C2C17B
:10184000758001D2C27F327E00121879C2C27F64D5
:10185000121879E490006DF0224F75747075742041
:101860003D2025690041766572616765203D202530
:101870006600D2C2121879C2C2E4FDFCC3ED9FEC2F
:101880009E50070DBD00010C80F22244001F000095
:10189000000042006B0000008F993099FDC2992230
:0E18A0003098FDAF99C2982290006DE0FF22B3
:00000001FF
