:030000000217DD07
:0300330002167D35
:10080000020B48E86480F8E933E83360110460F0D3
:10081000ED33EC337009E8FCE9FDEAFEEBFF22045E
:1008200060DED3EB9FEA9EE99DE8C2E78CF0C2F759
:1008300095F0400CE8CCF8E9CDF9EACEFAEBCFFB25
:10084000120B1385D0F05804700320D5B3E8047060
:10085000075002B2D5020B5292D5EC0460F7E4CCFB
:10086000C0E0C398F8603B94186008400DD0E0FBEE
:10087000020B2AE4FBFAC9FC8028E830E406E4C94C
:10088000FBE4CAFCE830E305E4C9CACBFCE8540742
:100890006010F8C3E913F9EA13FAEB13FBEC13FC4D
:1008A000D8F130F52FC3E49CFCEF9BFFEE9AFEEDF0
:1008B00099FDD0E0FBEF4E4D4C701222DB03020B92
:1008C0004FEC2CFCEF33FFEE33FEED33FDED30E764
:1008D000EB020B2AEF2BFFEE3AFEED39FDD0E0FBE9
:1008E00050130BBB0003020B52ED13FDEE13FEEF92
:1008F00013FFEC13FC020B2AEC4D6011E849701752
:10090000ED33EC3304600DE4FCFFFEFD22E933E837
:10091000330470F8020B48120B1358046009E4CC3E
:1009200024815006285009020B52284003020B4F25
:10093000C0E0EB4A7044B98006D0E0FB020B3EEF0A
:100940004E701CBD8008EBFFEAFEE9FD80EBE98DEF
:10095000F0A4FEE5F00209E1E9CDF9EAFEEBFFEFD4
:1009600089F0A4FCE5F0CE89F0A42EFFE435F0CDAB
:1009700089F0A42DFEE435F08067EF4E7005BD8050
:10098000D780C3EF8BF0A4ACF0EE8BF0A42CFCE48A
:1009900035F0F8EF8AF0A42CE5F038FCE433CB8D89
:1009A000F0A42CFCE5F03BF8EE8AF0A42CFCE5F07A
:1009B00038F8E433CF89F0A42CFCE5F038CF3400CC
:1009C000CE89F0A42FFFE5F03EFEE433C98DF0A4FC
:1009D0002EFEE5F039CD8AF0A42FFFE5F03EFEE4CF
:1009E0003DFD33D0E0FB50070BBB000F020B52EC78
:1009F0002CFCEF33FFEE33FEED33FD020B2A020B2E
:100A000052EC5D046005E859047003020B48120BB8
:100A100013580460F6EC4860F2EC7004FDFEFF220F
:100A2000C860DB2481C85009C39860025006020BDD
:100A30004F9850CAF582E9294B4A7005AB82020BE8
:100A40003E75F0007C1A7880C3EF9BEE9AED9940DA
:100A50000DC3EF9BFFEE9AFEED99FDE842F0DC231B
:100A6000ACF0D0E0FFD0E0FED0E0FDAB8220E7109C
:100A70001BEB60BAEC2CFCEF33FFEE33FEED33FDE5
:100A8000020B2AE803F830E705C0F075F000EF2FFD
:100A9000FFEE33FEED33FD40B830E7C280AA75F0BB
:100AA00020800E75F010800575F0087D007E007FB7
:100AB000003392D530D503120E0EEC334010EF33D5
:100AC000FFEE33FEED33FDEC33FCD5F0ED22E5F027
:100AD000247EA2D513CC92E7CDCEFF22EDD2E7CD76
:100AE00033EC3392D524814006E4FFFEFDFC22FC6A
:100AF000E4CFCECDCC24E0501174FF80EDC3CC13F5
:100B0000CCCD13CDCE13CECF13CF0470F030D5DEC5
:100B1000020E0EE9D2E7C933E833F892D5EDD2E7F9
:100B2000CD33EC33FC5002B2D522EC30E7100FBFCE
:100B3000000C0EBE00080DBD00040BEB6014A2D526
:100B4000EB13FCED92E7FD2274FFFCFDFEFF22E4B7
:100B500080F8A2D574FF13FC7D80E480EFF920E7D4
:100B60003624F950037907E4F42402FBE582158268
:100B700070021583DBF6E024FB501BE96014E4F0FF
:100B8000E582158270021583E004F0B40A08E4F0EF
:100B9000D9EE7401F00A22C2D522ED33EC3392D59E
:100BA000FA602AB4FF33EDC2E77BFF60067A0B7967
:100BB000BFE4227A0B79C820D5047A0B79C3224E80
:100BC000614E002B494E46002D494E4600E47A08FE
:100BD000F0A3DAFC7B00740722C083C082ECC0E083
:100BE000EDC0E0EEC0E0EFC0E0EA75F010A4CAABE3
:100BF000F075F04DA42BFBE435F0FCEA2410FAEB81
:100C000034C5FBEC34D9FCEDC2E7FF75F056A4F413
:100C10002411C5F0F434C58FF0A42AE5F03BE43C80
:100C2000F020E714120CCFD0E0FFD0E0FED0E0FDC2
:100C3000D0E0FC120A018014F404120CCFD0E0FFC3
:100C4000D0E0FED0E0FDD0E0FC1208F8D082D083E6
:100C5000E0FAEDD2E7CD33EC332482FBE4C3CF33AB
:100C6000CFCE33CECD33CD33DBF37B0775F00A84A3
:100C70006004F0A31B0AE5F0F0A38FF0740AA4FF50
:100C8000ACF08EF0740AA42CFEACF050010C8DF088
:100C9000740AA42CFDE435F0F0A3DBDE7407223FD8
:100CA0008000004120000042C80000447A00004655
:100CB0001C400047C35000497424004B1896804CD8
:100CC000BEBC205A0E1BCA6753C21C749DC5AEFB26
:100CD00060065407601C2323120CFDEB5438600996
:100CE000120CE9120CF81208F8ECF8EDF9EEFAEF34
:100CF000CB22EB120CF880F1543803241C900C9F8B
:100D0000FE93FC0EEE93FD0EEE930ECE93FF22BBF0
:100D1000010689828A83E0225002E722BBFE02E3B9
:100D20002289828A83E49322BB010CE58229F58221
:100D3000E5833AF583E0225006E92582F8E622BBF6
:100D4000FE06E92582F8E222E58229F582E5833A6A
:100D5000F583E49322BB010689828A83F022500244
:100D6000F722BBFE01F322F8BB010DE58229F582D3
:100D7000E5833AF583E8F0225006E92582C8F62299
:100D8000BBFE05E92582C8F222C2D5EC30E709B2E4
:100D9000D5E4C39DFDE49CFCEE30E715B2D5E4C379
:100DA0009FFFE49EFE120E6EC3E49DFDE49CFC805A
:100DB00003120E6E30D507C3E49FFFE49EFE22E8C7
:100DC0008FF0A4CC8BF0A42CFCE98EF0A42CFC8A30
:100DD000F0EDA42CFCEA8EF0A4CDA8F08BF0A42DAD
:100DE000CC3825F0FDE98FF0A42CCD35F0FCEB8E4E
:100DF000F0A4FEA9F0EB8FF0A4CFC5F02ECD39FE04
:100E0000E43CFCEAA42DCE35F0FDE43CFC22C3E436
:100E10009FFFE49EFEE49DFDE49CFC22ECF0A3ED2C
:100E2000F0A3EEF0A3EFF022F8E0FBA3A3E0F92596
:100E3000F0F0E582158270021583E0FA38F022EBBB
:100E4000F0A3EAF0A3E9F022D083D082F8E4937013
:100E500012740193700DA3A393F8740193F5828823
:100E600083E4737402936860EFA3A3A380DFBC00E4
:100E70000BBE0029EF8DF084FFADF022E4CCF875B5
:100E8000F008EF2FFFEE33FEEC33FCEE9DEC9840C4
:100E900005FCEE9DFE0FD5F0E9E4CEFD22EDF8F560
:100EA000F0EE8420D21CFEADF075F008EF2FFFEDC0
:100EB00033FD4007985006D5F0F222C398FD0FD5B8
:100EC000F0EA2275F008758200EF2FFFEE33FECDB9
:100ED00033CDCC33CCC58233C5829BED9AEC99E5FA
:100EE0008298400CF582EE9BFEED9AFDEC99FC0F8A
:100EF000D5F0D6E4CEFBE4CDFAE4CCF9A88222B852
:100F000000C1B90059BA002DEC8BF084CFCECDFCD6
:100F1000E5F0CBF97818EF2FFFEE33FEED33FDEC63
:100F200033FCEB33FB10D703994004EB99FB0FD84C
:100F3000E5E4F9FA227818EF2FFFEE33FEED33FDEA
:100F4000EC33FCC933C910D7059BE99A4007EC9BE9
:100F5000FCE99AF90FD8E0E4C9FAE4CCFB2275F079
:100F600010EF2FFFEE33FEED33FDCC33CCC833C88A
:100F700010D7079BEC9AE899400AED9BFDEC9AFC90
:100F8000E899F80FD5F0DAE4CDFBE4CCFAE4C8F93F
:100F900022E5082482F582E43400F583E005082286
:100FA00090007F300703900082E475F001120E2854
:100FB000020D0F2000E97F2ED2008018EF540F247D
:100FC00090D43440D4FF30040BEF24BFB41A005047
:100FD000032461FFE50960021509050CE50C7002A8
:100FE000050B30070E90007FE475F001120E28EF1C
:100FF000020D55021BA17403D2078003E4C207F55A
:101000000890007F120E3FE4F509F50BF50CE50999
:1010100060077F20120FD480F5750AFFC201C2005D
:10102000C202C203C205C206C208120FA0FF700DA1
:101030003007057F00120FE5AF0CAE0B22B4255F21
:10104000C2D5C204120FA0FF24D0B40A00501A75F2
:10105000F00A780930D50508B6FF0106C6A426F6C1
:1010600020D5047002D20380D924CFB41A00EF50E7
:1010700004C2E5D2040212D7D20180C6D20080C0D9
:10108000D20280BCD2D580BAD20580B47F20120FA4
:10109000D42002077401B5090040F1120F91FF122C
:1010A0000FD402100ED208D2068095120F91FB12B7
:1010B0000F91FA120F91F94A4B700679D57A137B8A
:1010C000FF20022EE509602A7E008E8275830012C1
:1010D0000D2860060EEE650A70F0C2D5EBC0E0EA9E
:1010E000C0E0E9C0E0EE121338D0E0F9D0E0FAD069
:1010F000E0FB120D0FFF60AAEBC0E0EAC0E0E9C020
:10110000E0120FD4D0E02401F9D0E03400FAD0E0AE
:10111000FBE50A0460DCD50AD98087D20280A212DE
:10112000131A60F7E50A700104120B5DA90A600D3D
:10113000E50A600914F50A1213C2EF60F3EA30E71A
:1011400002F404C3995079EAF4250A0430E701E473
:1011500004F50A800D12131A60C1EA050A250A1265
:101160000B5DEA9000AEF030E701E4250A04D50AF1
:101170000420050114121338E4C0E01213C29000D9
:10118000AEE0601320E70714F0120FBC802204F0D9
:10119000D0E014C0E07F00120FBCE50A6007120F18
:1011A000B3150A800B300503120FB3D0E002100E06
:1011B000D0E00480C412131A609EE50A04120B5D8D
:1011C0009000AEEAF0E50A20050260010424041252
:1011D000133874FF04C0E01213C2120FBCE50A20DA
:1011E00005026003120FB3D0E0B50AE87F45120F85
:1011F000C69000AEE07F2B30E7047F2DF404C0E002
:10120000120FD4D0E075F00A84C0F0120FBDD0E008
:10121000120FBD02100E791080027908C206C208B2
:101220008008D2D5790A8004790AC2D5E50A04700B
:1012300002F50AE4FAFDFEFF120F91FC7B08200183
:1012400013120F91FD7B1030000A120F91FE120F46
:1012500091FF7B20EC3382D592D55013C3E430004C
:10126000069FFFE49EFEE42001039DFDE49CFCE458
:10127000CBF8C201EC700CCFCECDCCE824F8F870DE
:10128000F38017C3EF33FFEE33FEED33FDEC33FC99
:10129000EB33FB994002FB0FD8E9EB300105F8D0A6
:1012A000E0C448B201C0E00AEC4D4E4F78207B000C
:1012B00070C2EAB50A0040BCC0E012133AD0F0D0C8
:1012C000E0200104C4C0E0C4B201C0F0120FBDD0E0
:1012D000F0D5F0EB02100E120E4810AB5312165858
:1012E000107C4C107842121A4F12224412224910DC
:1012F000914312285511554611B545111F4713F555
:101300005010802D10842E10A72B10882310A5209C
:1013100013DE2A1040480000109FE50AB4FF037551
:101320000A06120F91FC120F91FD120F91FE120F7F
:1013300091FF9000A7020B9A790AA2D520031430DE
:101340000509B910020404B9080104A2D520060257
:101350005001042002689202B509005034C0E07FB9
:10136000203003197F30A20272067205500F12134B
:1013700091C202C206C205C2087F30800F30050349
:10138000E9C0E0120FD4300503D0E0F9D0E0B50990
:10139000CC3005177F30B9100C120FD47F583004B1
:1013A000077F788003B90803120FD43002057F2D20
:1013B000020FD47F202008F87F2B2006F322920210
:1013C00080CF7F00B40700500B24A7F582E43400DF
:1013D000F583E0FF22286E756C6C2900D201120F94
:1013E000913001F8C201780930D50108F6021040A9
:1013F0002D50434958120F912403B405004001E4D5
:101400009013F093120FC5743A120FC5D2037509E9
:1014100004021216121BFE1219D77FB07E04121B93
:101420007AAFA0900018E4F0A3EFF090001EE0FC6B
:10143000A3E0FDEC120AA37BCD7ACC794C783E1266
:1014400008F890001A120E1C900000E0FCA3E0FDCA
:10145000EC120AA37BCD7ACC79CC783D1208F890B7
:101460000065120E1C900059E0FCA3E0FDEC120A8E
:10147000A3E4FBFA7980783E1208F8900028120E57
:101480001C900065E0FCA3E0FDA3E0FEA3E0FF905C
:10149000001AE0F8A3E0F9A3E0FAA3E0FB120807C2
:1014A000900028E0F8A3E0F9A3E0FAA3E0FB12081B
:1014B0000790006F120E1C90006FE0F8A3E0F9A3F4
:1014C000E0FAA3E0FB7F667E867DC47C43120803BE
:1014D0007BC37AD379CB783F120A01120ADC8FFAE8
:1014E000121BC8900004E0FEA3E0FBAA06EA3395B5
:1014F000E0F9F87FE07E937D047C00121A339000BF
:101500000EEEF0FCA3EFF0FD900009E025E0FF9067
:101510000008E033FE74732FF58274003EF583EC0F
:10152000F0A3EDF0900009E004F07006900008E0F0
:1015300004F0900008E07004A3E06406700D9000D1
:1015400008F0A3F0900010F0A304F0900010E070F9
:1015500002A3E0700302142112196690008274FF46
:10156000F0A3741CF0A37411F0900024E0FFA3E03A
:10157000900085CFF0A3EFF07B017A007938120F4D
:10158000F67B017A007938121A777B017A00793874
:10159000121AE97F10121B1CACA0E4120AA87BC32C
:1015A0007AD379CB78BF1208F87B667A8679C478CB
:1015B00043120807120ADC90000CEEF0A3EFF09043
:1015C000008274FFF0A3741CF0A37414F090000C5C
:1015D000E0FFA3E0900085CFF0A3EFF07B017A005D
:1015E0007938120FF67B017A007938121A77900059
:1015F0001EE0FFA3E090006BCFF0A3EFF09000247B
:10160000E0FEA3E0FFC390000DE09FFF90000CE020
:101610009E90001EF0A3EFF090001EE0FAA3E0FB06
:10162000C390006CE09BFE90006BE09A900059F034
:10163000A3CEF0900001E02BF0900000E03AF07FA4
:1016400019121B1C90008274FFF0A3741CF0A37489
:101650001CF090001EE0FFA3E0900085CFF0A3EF08
:10166000F07B017A007938120FF67B017A00793825
:10167000121A77E4900010F0A3F0021421C0E0C029
:10168000F0C083C082C0D075D000C000C001C002CD
:10169000C003C004C005C006C007C2AFC2AE30DF81
:1016A0001090007EE004F0700690007DE004F0C22F
:1016B000DF30D966AFFBEF900026F0A3E4F0AFEB8C
:1016C000900034F0A3EFF0900014E0FFA3E0A3CF6C
:1016D000F0A3EFF090007DE0FEA3E0FFE4FCFDFB53
:1016E000FA7901F8120DBF900034E0FCA3E0FD9000
:1016F0000027E02DFD900026E03CCD2FFFED3EFEC3
:10170000900014F0A3EFF0A3E0FCA3E0FDC3EF9D75
:10171000FFEE9C900004F0A3EFF0C2D9D2AFD2AE9E
:1017200090007DE4F0A3F0D007D006D005D004D01F
:1017300003D002D001D000D0D0D082D083D0F0D05E
:10174000E032E49000B0F09000B0E004F0E0B4FFCC
:10175000F6D2A0D2A1D2A2D2A39000B0740DF0C252
:10176000A020A4037401F020A5069000B07402F03C
:1017700020A6069000B07403F0D2A0C2A120A40657
:101780009000B07404F020A5069000B07405F0201D
:10179000A6069000B07406F0D2A1C2A220A40690C2
:1017A00000B07407F020A5069000B07408F020A6E1
:1017B000069000B07409F0D2A2C2A320A406900043
:1017C000B0740AF020A505E49000B0F020A60690C1
:1017D00000B0740CF0D2A39000B0E0FF22787FE458
:1017E000F6D8FD758121021824021414E493A3F89D
:1017F000E493A34003F68001F208DFF48029E49328
:10180000A3F85407240CC8C333C4540F4420C8831E
:101810004004F456800146F6DFE4800B0102040820
:1018200010204080901869E47E019360BCA3FF54AF
:101830003F30E509541FFEE493A360010ECF54C06E
:1018400025E060A840B8E493A3FAE493A3F8E493F6
:10185000A3C8C582C8CAC583CAF0A3C8C582C8CAFE
:10186000C583CADFE9DEE780BE4200B10000420066
:1018700004000042000E0000420008000042000682
:10188000000542000A00004200100000420069000A
:101890000042006D000042000C00004200120000F7
:1018A000420036000142001E0000420018000044C1
:1018B00000303FC0000044002C0000000044002025
:1018C0000000000044001A00000000440065000011
:1018D00000004400280000000044006F00000000E9
:1018E000420000000042006B00004200590000006E
:1018F0009000B4EBF0A3EAF0A3E9F0E4A3F09000C9
:10190000B7E0C39DEC6480F87480985042121C29A3
:10191000EF640D6004EFB40A189000B4E0FBA3E09C
:10192000FAA3E0F9A3E0F582758300E4120D678065
:101930001E9000B4E0FBA3E0FAA3E0F9A3E0F58277
:10194000758300EF120D679000B7E004F080AF9050
:1019500000B4E0FBA3E0FAA3E0F9AE04AF058F8288
:101960008E83E4020D67E490000AF0A3F090006912
:10197000F0A3F0900069E0FEA3E0FFC39405EE64DD
:101980008094805032EF25E0FFEE33FE74732FF524
:101990008274003EF583E0FEA3E0FF90000BE02F91
:1019A000F090000AE03EF090006AE004F070C4900D
:1019B0000069E004F080BC90000AE0FEA3E0FF7C38
:1019C000007D05120D8990006DEEF0A3EFF0900000
:1019D00024EEF0A3EFF022C2C0C2C1758030D2C2A3
:1019E0007F2C7E01121BECC2C27F641E121BECD244
:1019F000C27F2C0E121BECC2C27F641E121BECD2E3
:101A0000C27F2C0E121BECC2C27F641E121BEC752F
:101A10008038121BE5758008121BE5758001121BCA
:101A2000E5758006121BE575800C121BE5E490003D
:101A3000B3F022C2D5E830E70FB2D5E4C39BFBE494
:101A40009AFAE499F9E498F8EC30E717B2D5121A4B
:101A500069120EFFE4C39BFBE49AFAE499F9E49857
:101A6000F88003120EFF30D50DE4C39FFFE49EFE05
:101A7000E49DFDE49CFC2290007FEBF0A3EAF0A340
:101A8000E9F0E49000AFF09000AFE0FFC394205085
:101A90002190007FE0FBA3E0FAA3E0F98F82758339
:101AA00000120D28FF600B121AB39000AFE004F093
:101AB00080D522900082EFF09000B3E0B410047F54
:101AC0001080099000B3E0B42005E4FF121B1CD283
:101AD000C0C2C1900082E0F580D2C27F327E001287
:101AE0001BE79000B3E004F02290007FEBF0A3EA44
:101AF000F0A3E9F0E4FE90007FE0FBA3E0FAA3E0AE
:101B0000F98E82758300120D28FF6006121C210ECB
:101B100080E47F0D121C217F0A021C219000B3E09B
:101B2000C394205028EFF0C394105005E024808027
:101B3000069000B3E024B0F580C2C0C2C1D2C27F1B
:101B4000647E00121BECC2C27F32121BEC2243F6F1
:101B50000175F32043F30853F3EFAFF5EF75F0048D
:101B6000A4ADF47C002DFEEC35F09000B1F0A3CED6
:101B7000F09000B1E0FEA3E0FF2243892053892FBB
:101B8000C29FD29E438780AB07AA06E4F9F87F2460
:101B90007EF4FDFC121A33EFF404F58DD29CD28E44
:101BA00022EFB40A07740D121BAC740A309811A806
:101BB00099B8130CC2983098FDA899C298B811F63C
:101BC0003099FDC299F59922C2C0C2C1758001D277
:101BD000C27F327E00121BECC2C27F64121BECE497
:101BE0009000B3F022D2C2121BECC2C2E4FDFCC3CF
:101BF000ED9FEC9E50070DBD00010C80F22275DABE
:101C00004275D901D2AFD2AE75DB1175D840C2DFB3
:101C1000222569007752504D3A256900653A2569B9
:101C2000008F993099FDC299223098FDAF99C298E2
:071C3000229000B3E0FF2247
:00000001FF
