:03000000020EC627
:03003300020D4279
:10080000E5082403F582E43400F583E0050822902E
:100810000000300703900003E475F001120CFC02A5
:100820000C032000E97F2ED2008018EF540F249093
:10083000D43440D4FF30040BEF24BFB41A0050036B
:100840002461FFE50960021509050CE50C7002053D
:100850000B30070E900000E475F001120CFCEF0263
:100860000C1C0211D37403D2078003E4C207F508FD
:10087000900000120D13E4F509F50BF50CE5096085
:10088000077F2012084380F5750AFFC201C200C22B
:1008900002C203C205C206C20812080FFF700D3063
:1008A00007057F00120854AF0CAE0B22B4255FC2BF
:1008B000D5C20412080FFF24D0B40A00501A75F0F4
:1008C0000A780930D50508B6FF0106C6A426F62029
:1008D000D5047002D20380D924CFB41A00EF50049B
:1008E000C2E5D204020A55D20180C6D20080C0D22D
:1008F0000280BCD2D580BAD20580B47F20120843D2
:100900002002077401B5090040F1120800FF120827
:100910004302087DD208D2068095120800FB120817
:1009200000FA120800F94A4B700679267A0B7BFF11
:1009300020022EE509602A7E008E82758300120B4C
:100940006560060EEE650A70F0C2D5EBC0E0EAC045
:10095000E0E9C0E0EE120A9CD0E0F9D0E0FAD0E085
:10096000FB120C03FF60AAEBC0E0EAC0E0E9C0E0C4
:10097000120843D0E02401F9D0E03400FAD0E0FBC3
:10098000E50A0460DCD50AD980877BFF7A0A79986A
:10099000D202809C791080027908C206C2088008C1
:1009A000D2D5790A8004790AC2D5E50A047002F525
:1009B0000AE4FAFDFEFF120800FC7B082001131276
:1009C0000800FD7B1030000A120800FE120800FF2C
:1009D0007B20EC3382D592D55013C3E43000069FC0
:1009E000FFE49EFEE42001039DFDE49CFCE4CBF8C3
:1009F000C201EC700CCFCECDCCE824F8F870F380B7
:100A000017C3EF33FFEE33FEED33FDEC33FCEB3376
:100A1000FB994002FB0FD8E9EB300105F8D0E0C4A8
:100A200048B201C0E00AEC4D4E4F78207B0070C206
:100A3000EAB50A0040BCC0E0120A9ED0F0D0E02027
:100A40000104C4C0E0C4B201C0F012082CD0F0D53B
:100A5000F0EB02087D120D1C091A5309945808EB9B
:100A60004C08E74209984F09A04409A049090043EE
:100A700009A655098A46098A45098A470B4650083E
:100A8000EF2D08F32E09162B08F7230914200B2F3E
:100A90002A08AF480000090E3F3F3F00790AA2D55F
:100AA000200314300509B910020404B9080104A296
:100AB000D52006025001042002689202B5090050B8
:100AC00034C0E07F203003197F30A2027206720525
:100AD000500F120AF5C202C206C205C2087F30805A
:100AE0000F300503E9C0E0120843300503D0E0F9F8
:100AF000D0E0B509CC3005177F30B9100C1208438F
:100B00007F583004077F788003B908031208433008
:100B100002057F2D0208437F202008F87F2B200646
:100B2000F322920280CF286E756C6C2900D20112DC
:100B300008003001F8C201780930D50108F6020832
:100B4000AF2D504349581208002403B4050040015A
:100B5000E4900B4193120834743A120834D20375AE
:100B60000904020994BB010CE58229F582E5833A68
:100B7000F583E0225006E92582F8E622BBFE06E96D
:100B80002582F8E222E58229F582E5833AF583E4BD
:100B90009322F8BB010DE58229F582E5833AF583BE
:100BA000E8F0225006E92582C8F622BBFE05E925B9
:100BB00082C8F222E88FF0A4CC8BF0A42CFCE98E42
:100BC000F0A42CFC8AF0EDA42CFCEA8EF0A4CDA8B5
:100BD000F08BF0A42DCC3825F0FDE98FF0A42CCDBE
:100BE00035F0FCEB8EF0A4FEA9F0EB8FF0A4CFC59E
:100BF000F02ECD39FEE43CFCEAA42DCE35F0FDE428
:100C00003CFC22BB010689828A83E0225002E72253
:100C1000BBFE02E32289828A83E49322BB01068918
:100C2000828A83F0225002F722BBFE01F32275F084
:100C300008758200EF2FFFEE33FECD33CDCC33CCE1
:100C4000C58233C5829BED9AEC99E58298400CF5FC
:100C500082EE9BFEED9AFDEC99FC0FD5F0D6E4CE2A
:100C6000FBE4CDFAE4CCF9A88222B800C1B900595E
:100C7000BA002DEC8BF084CFCECDFCE5F0CBF9782B
:100C800018EF2FFFEE33FEED33FDEC33FCEB33FBBF
:100C900010D703994004EB99FB0FD8E5E4F9FA2249
:100CA0007818EF2FFFEE33FEED33FDEC33FCC93344
:100CB000C910D7059BE99A4007EC9BFCE99AF90F0C
:100CC000D8E0E4C9FAE4CCFB2275F010EF2FFFEE78
:100CD00033FEED33FDCC33CCC833C810D7079BECC3
:100CE0009AE899400AED9BFDEC9AFCE899F80FD53B
:100CF000F0DAE4CDFBE4CCFAE4C8F922F8E0FBA397
:100D0000A3E0F925F0F0E582158270021583E0FA80
:100D100038F022EBF0A3EAF0A3E9F022D083D082EE
:100D2000F8E4937012740193700DA3A393F8740107
:100D300093F5828883E4737402936860EFA3A3A39E
:100D400080DFC0E0C0F0C083C082C0D075D000C0DA
:100D500000C001C002C003C004C005C006C007C275
:100D6000AFC2AE20D803020E0330DF10C2DF900006
:100D70004AE004F07006900049E004F0AFFAEF900A
:100D80000036F0A3E4F0AFEA900047F0A3EFF09054
:100D9000002CE0FFA3E0A3CFF0A3EFF0900049E028
:100DA000FEA3E0FFEE3395E0FDFCE4FBFA7901F8E9
:100DB000120BB4900047E0FCA3E0FD900037E02D5B
:100DC000FD900036E03CCD2FFFED3EFE90002CF074
:100DD000A3EFF0A3E0FCA3E0FDC3EF9DFFEE9CFEBC
:100DE00090002AF0A3EFF0FBAA06EA3395E0F9F8A9
:100DF0007FE07E937D047C00121024900034EEF09E
:100E0000A3EFF0C2D8D2AFD2AE900049E4F0A3F085
:100E1000D007D006D005D004D003D002D001D00036
:100E2000D0D0D082D083D0F0D0E032E490004CF02B
:100E300090004CE004F0E0B4FFF6D2A0D2A1D2A220
:100E4000D2A390004C740DF0C2A020A4037401F052
:100E500020A50690004C7402F020A60690004C7469
:100E600003F0D2A0C2A120A40690004C7404F0208C
:100E7000A50690004C7405F020A60690004C740660
:100E8000F0D2A1C2A220A40690004C7407F020A5C5
:100E90000690004C7408F020A60690004C7409F0EF
:100EA000D2A2C2A320A40690004C740AF020A5058B
:100EB000E490004CF020A60690004C740CF0D2A3F5
:100EC00090004CE0FF22787FE4F6D8FD7581210286
:100ED0000F0D021068E493A3F8E493A34003F68097
:100EE00001F208DFF48029E493A3F85407240CC826
:100EF000C333C4540F4420C8834004F456800146D1
:100F0000F6DFE4800B0102040810204080901230CC
:100F1000E47E019360BCA3FF543F30E509541FFEFB
:100F2000E493A360010ECF54C025E060A840B8E46C
:100F300093A3FAE493A3F8E493A3C8C582C8CAC5EF
:100F400083CAF0A3C8C582C8CAC583CADFE9DEE781
:100F500080BE900050EBF0A3EAF0A3E9F0E4A3F028
:100F6000900053E0C39DEC6480F874809850421266
:100F70001266EF640D6004EFB40A18900050E0FBB5
:100F8000A3E0FAA3E0F9A3E0F582758300E4120B75
:100F900092801E900050E0FBA3E0FAA3E0F9A3E0EA
:100FA000F582758300EF120B92900053E004F080FD
:100FB000AF900050E0FBA3E0FAA3E0F9AE04AF0568
:100FC0008F828E83E4020B92C2C0C2C1758030D280
:100FD000C27F2C7E0112121EC2C27F641E12121E1C
:100FE000D2C27F2C0E12121EC2C27F641E12121EAB
:100FF000D2C27F2C0E12121EC2C27F641E12121E9B
:101000007580381212177580081212177580011238
:10101000121775800612121775800C121217E490C1
:10102000004FF022C2D5E830E70FB2D5E4C39BFBF6
:10103000E49AFAE499F9E498F8EC30E717B2D5129B
:10104000105A120C6AE4C39BFBE49AFAE499F9E49F
:1010500098F88003120C6A30D50DE4C39FFFE49E1C
:10106000FEE49DFDE49CFC22120FC81212451211F1
:10107000FA90000374FFF0A37412F0A37455F0907B
:101080000034E0FFA3E0900006CFF0A3EFF07B0177
:101090007A0079381208657B017A0079381210A934
:1010A0007FE87E0312121E80C5900000EBF0A3EAD9
:1010B000F0A3E9F0E490004BF090004BE0FFC39404
:1010C000205021900000E0FBA3E0FAA3E0F98F821A
:1010D000758300120B65FF600B1210E590004BE06A
:1010E00004F080D522900003EFF090004FE0B410A0
:1010F000047F10800990004FE0B42005E4FF121136
:101100004ED2C0C2C1900003E0F580D2C27F327ED1
:101110000012121990004FE004F022900054EBF0FE
:10112000A3EAF0A3E9F0E4FE900054E0FBA3E0FAA8
:10113000A3E0F98E82758300120B65FF6006121220
:101140005E0E80E47F0D12125E7F0A02125E900036
:101150004FE0C394205028EFF0C394105005E024D2
:1011600080800690004FE024B0F580C2C0C2C1D29A
:10117000C27F647E0012121EC2C27F3212121E2271
:1011800043F60175F32043F30853F3EFAFF5EF7522
:10119000F004A4ADF47C002DFEEC35F090004DF091
:1011A000A3CEF090004DE0FEA3E0FF224389205340
:1011B000892FC29FD29E438780AB07AA06E4F9F825
:1011C0007F247EF4FDFC121024EFF404F58DD29CF4
:1011D000D28E22EFB40A07740D1211DE740A309811
:1011E00011A899B8130CC2983098FDA899C298B864
:1011F00011F63099FDC299F59922C2C0C2C175801D
:1012000001D2C27F327E0012121EC2C27F6412124D
:101210001EE490004FF022D2C212121EC2C2E4FDA0
:10122000FCC3ED9FEC9E50070DBD00010C80F22227
:1012300042004D00004200300000420032000042F7
:10124000004900000075DA11D2AFD2AE75DA11751F
:10125000D840C2DF2252504D203D202569008F9991
:101260003099FDC299223098FDAF99C29822900022
:041270004FE0FF222A
:00000001FF
