:030000000209B83A
:10080000BB010CE58229F582E5833AF583E02250AD
:1008100006E92582F8E622BBFE06E92582F8E222F7
:10082000E58229F582E5833AF583E49322F8BB015A
:100830000DE58229F582E5833AF583E8F02250063A
:10084000E92582C8F622BBFE05E92582C8F2227599
:10085000F008758200EF2FFFEE33FECD33CDCC33A1
:10086000CCC58233C5829BED9AEC99E58298400C09
:10087000F582EE9BFEED9AFDEC99FC0FD5F0D6E4E7
:10088000CEFBE4CDFAE4CCF9A88222B800C1B900CD
:1008900059BA002DEC8BF084CFCECDFCE5F0CBF92E
:1008A0007818EF2FFFEE33FEED33FDEC33FCEB3326
:1008B000FB10D703994004EB99FB0FD8E5E4F9FA54
:1008C000227818EF2FFFEE33FEED33FDEC33FCC939
:1008D00033C910D7059BE99A4007EC9BFCE99AF9CC
:1008E0000FD8E0E4C9FAE4CCFB2275F010EF2FFF3B
:1008F000EE33FEED33FDCC33CCC833C810D7079BA5
:10090000EC9AE899400AED9BFDEC9AFCE899F80F07
:10091000D5F0DAE4CDFBE4CCFAE4C8F922E49000A7
:1009200017F0900017E004F0E0B4FFF6D2A0D2A1D7
:10093000D2A2D2A3900017740DF0C2A020A4037419
:1009400001F020A5069000177402F020A606900082
:10095000177403F0D2A0C2A120A40690001774045B
:10096000F020A5069000177405F020A60690001749
:100970007406F0D2A1C2A220A4069000177407F05A
:1009800020A5069000177408F020A60690001774A2
:1009900009F0D2A2C2A320A406900017740AF02086
:1009A000A505E4900017F020A606900017740CF03F
:1009B000D2A3900017E0FF22787FE4F6D8FD75817E
:1009C000070209FF020CAFE493A3F8E493A34003EA
:1009D000F68001F208DFF48029E493A3F854072499
:1009E0000CC8C333C4540F4420C8834004F4568059
:1009F0000146F6DFE4800B010204081020408090DD
:100A00000DF1E47E019360BCA3FF543F30E509542F
:100A10001FFEE493A360010ECF54C025E060A84000
:100A2000B8E493A3FAE493A3F8E493A3C8C582C8F7
:100A3000CAC583CAF0A3C8C582C8CAC583CADFE9CC
:100A4000DEE780BE90001BEBF0A3EAF0A3E9F0E440
:100A5000A3F090001EE0C39DEC6480F87480985071
:100A600042120DE3EF640D6004EFB40A1890001B0E
:100A7000E0FBA3E0FAA3E0F9A3E0F582758300E4CC
:100A800012082D801E90001BE0FBA3E0FAA3E0F902
:100A9000A3E0F582758300EF12082D90001EE0049C
:100AA000F080AF90001BE0FBA3E0FAA3E0F9AE04F6
:100AB000AF058F828E83E402082DE4F580C2C0C2A8
:100AC000C1758001D2C27FE87E03120DB5C2C2E4B7
:100AD000F580C2C0C2C1758038D2C27FE87E0312E1
:100AE0000DB5C2C2E4F580C2C0C2C1758008D2C2D1
:100AF0007FE87E03120DB5C2C2E4F580C2C0C2C158
:100B0000758006D2C27FE87E03120DB5C2C2758021
:100B10000CD2C27FE87E03120DB5C2C222C2C0C28F
:100B2000C1758030D2C27F2C7E01120DB5C2C27F4A
:100B3000641E120DB5D2C27F2C0E120DB5C2C27F3B
:100B4000641E120DB5D2C27F2C0E120DB5C2C27F2B
:100B5000641E120DB5758038120DAE758008120D29
:100B6000AE758001120DAE758006120DAE75800C4B
:100B7000120DAEE490001AF022900025EBF0A3EAEB
:100B8000F0A3E9F0E4900012F0A3F0900012E0FE70
:100B9000A3E0FFC3940FEE6480948050289000255A
:100BA000E0FBA3E0FAA3E0F98F828E83120800FF36
:100BB0006013120DC7900013E004F070CE90001285
:100BC000E004F080C622C2D5E830E70FB2D5E4C316
:100BD0009BFBE49AFAE499F9E498F8EC30E717B251
:100BE000D5120BFC12088BE4C39BFBE49AFAE49940
:100BF000F9E498F8800312088B30D50DE4C39FFF09
:100C0000E49EFEE49DFDE49CFC2290001FEBF0A31B
:100C1000EAF0A3E9F0E4900016F0900016E0FFC3BC
:100C20009420502190001FE0FBA3E0FAA3E0F98F8D
:100C300082758300120800FF600B120C46900016AC
:100C4000E004F080D522900028EFF090001AE0B484
:100C500010047F10800990001AE0B42005E4FF1210
:100C60000CE1D2C0C2C1900028E0F580D2C27F3230
:100C70007E00120DB090001AE004F022900022EBEA
:100C8000F0A3EAF0A3E9F0E4FE900022E0FBA3E089
:100C9000FAA3E0F98E82758300120800FF60061245
:100CA0000DDB0E80E47F0D120DDB7F0A020DDB12DF
:100CB0000ABAE4900002F0A37468F0A304F0900074
:100CC00014E4F0A304F0120D91900002E0FF120D65
:100CD0003F7B017A007903120B797F107E27020D8A
:100CE000B590001AE0C394205028EFF0C394105040
:100CF00005E02480800690001AE024B0F580C2C090
:100D0000C2C1D2C27F647E00120DB5C2C27F321250
:100D10000DB52243F60175F32043F30853F3EFAF0B
:100D2000F5EF75F004A4ADF47C002DFEEC35F090E9
:100D30000018F0A3CEF0900018E0FEA3E0FF229090
:100D40000025EFF0C394104009C2C0C2C1E024B036
:100D5000800AC2C0C2C1900025E02480F580D2C2C2
:100D60007FE87E03120DB5C2C22243892053892F2A
:100D7000C29FD29E438780AB07AA06E4F9F87F247E
:100D80007EF4FDFC120BC6EFF404F58DD29CD28EDE
:100D900022C2C0C2C1758001D2C27F327E00120D54
:100DA000B5C2C27F64120DB5E490001AF022D2C21F
:100DB000120DB5C2C2E4FDFCC3ED9FEC9E50070DC1
:100DC000BD00010C80F222D2C0C2C18F80D2C27F8E
:100DD000E87E03120DB5C2C2C2C0228F993099FDC0
:100DE000C299223098FDAF99C2982290001AE0FF74
:070DF0002242001800000080
:00000001FF
