:0600000002167B02198CC0
:030033000213CBEA
:10080000020996EC5D046005E85904700302098C46
:10081000120957580460F6EC4860F2EC7004FDFED3
:10082000FF22C860DB2481C85009C39860025006CB
:100830000209939850CAF582E9294B4A7005AB82A8
:1008400002098275F0007C1A7880C3EF9BEE9AED66
:1008500099400DC3EF9BFFEE9AFEED99FDE842F043
:10086000DC23ACF0D0E0FFD0E0FED0E0FDAB822096
:10087000E7101BEB60BAEC2CFCEF33FFEE33FEED20
:1008800033FD02096EE803F830E705C0F075F000AB
:10089000EF2FFFEE33FEED33FD40B830E7C280AA04
:1008A00074F8CC6480CCC86480C8F58204604FC3FF
:1008B000EB9FF5F0EA9E42F0E99D42F0E89C45F09E
:1008C000603C501DE5825FFFE582D313CB5BCBF428
:1008D0002B5582FB50280ABA002409B90020088051
:1008E0001DE5825BFBE582D313CF5FCFF4C3132FEB
:1008F0005582FF50090EBE00050DBD00010CC3EB73
:100900009FF5F0EA9E42F0E99D42F0E89C45F060D8
:1009100007CC4820E701B3EC2275F020800E75F07B
:1009200010800575F0087D007E007F003392D53081
:10093000D503120E1AEC334010EF33FFEE33FEED09
:1009400033FDEC33FCD5F0ED22E5F0247EA2D51387
:10095000CC92E7CDCEFF22E9D2E7C933E833F89253
:10096000D5EDD2E7CD33EC33FC5002B2D522EC30DA
:10097000E7100FBF000C0EBE00080DBD00040BEB0E
:100980006014A2D5EB13FCED92E7FD2274FFFCFD91
:10099000FEFF22E480F8A2D574FF13FC7D80E48082
:1009A000EFF920E73624F950037907E4F42402FB39
:1009B000E582158270021583DBF6E024FB501BE90B
:1009C0006014E4F0E582158270021583E004F0B44F
:1009D0000A08E4F0D9EE7401F00A22C2D522ED3300
:1009E000EC3392D5FA602AB4FF33EDC2E77BFF60A7
:1009F000067A0A7903E4227A0A790C20D5047A0A65
:100A00007907224E614E002B494E46002D494E4635
:100A100000E47A08F0A3DAFC7B00740722C083C0EC
:100A200082ECC0E0EDC0E0EEC0E0EFC0E0EA75F0BF
:100A300010A4CAABF075F04DA42BFBE435F0FCEA32
:100A40002410FAEB34C5FBEC34D9FCEDC2E7FF759A
:100A5000F056A4F42411C5F0F434C58FF0A42AE5AF
:100A6000F03BE43CF020E714120D11D0E0FFD0E0A1
:100A7000FED0E0FDD0E0FC1208038014F404120D57
:100A800011D0E0FFD0E0FED0E0FDD0E0FC120BDBA7
:100A9000D082D083E0FAEDD2E7CD33EC332482FB71
:100AA000E4C3CF33CFCE33CECD33CD33DBF37B07AF
:100AB00075F00A846004F0A31B0AE5F0F0A38FF040
:100AC000740AA4FFACF08EF0740AA42CFEACF050B3
:100AD000010C8DF0740AA42CFDE435F0F0A3DBDEEC
:100AE00074072202098CE86480F8E933E833601166
:100AF0000460F0ED33EC337009E8FCE9FDEAFEEB4D
:100B0000FF220460DED3EB9FEA9EE99DE8C2E78CFA
:100B1000F0C2F795F0400CE8CCF8E9CDF9EACEFA4E
:100B2000EBCFFB12095785D0F05804700320D5B3E2
:100B3000E80470075002B2D502099692D5EC046021
:100B4000F7E4CCC0E0C398F8603B94186008400D0F
:100B5000D0E0FB02096EE4FBFAC9FC8028E830E42F
:100B600006E4C9FBE4CAFCE830E305E4C9CACBFCEF
:100B7000E854076010F8C3E913F9EA13FAEB13FB22
:100B8000EC13FCD8F130F52FC3E49CFCEF9BFFEE97
:100B90009AFEED99FDD0E0FBEF4E4D4C701222DB3A
:100BA00003020993EC2CFCEF33FFEE33FEED33FD33
:100BB000ED30E7EB02096EEF2BFFEE3AFEED39FD6B
:100BC000D0E0FB50130BBB0003020996ED13FDEEC2
:100BD00013FEEF13FFEC13FC02096EEC4D6011E8FD
:100BE000497017ED33EC3304600DE4FCFFFEFD2289
:100BF000E933E8330470F802098C1209575804608D
:100C000009E4CC24815006285009020996284003A3
:100C1000020993C0E0EB4A7044B98006D0E0FB02C1
:100C20000982EF4E701CBD8008EBFFEAFEE9FD80F3
:100C3000EBE98DF0A4FEE5F0020CC4E9CDF9EAFE83
:100C4000EBFFEF89F0A4FCE5F0CE89F0A42EFFE4E1
:100C500035F0CD89F0A42DFEE435F08067EF4E70BD
:100C600005BD80D780C3EF8BF0A4ACF0EE8BF0A471
:100C70002CFCE435F0F8EF8AF0A42CE5F038FCE425
:100C800033CB8DF0A42CFCE5F03BF8EE8AF0A42CDD
:100C9000FCE5F038F8E433CF89F0A42CFCE5F0381B
:100CA000CF3400CE89F0A42FFFE5F03EFEE433C937
:100CB0008DF0A42EFEE5F039CD8AF0A42FFFE5F0EB
:100CC0003EFEE43DFD33D0E0FB50070BBB000F02BE
:100CD0000996EC2CFCEF33FFEE33FEED33FD0209F9
:100CE0006E3F8000004120000042C80000447A00AE
:100CF00000461C400047C35000497424004B18961E
:100D0000804CBEBC205A0E1BCA6753C21C749DC5C2
:100D1000AEFB60065407601C2323120D3FEB5438D2
:100D20006009120D2B120D3A120BDBECF8EDF9EE07
:100D3000FAEFCB22EB120D3A80F1543803241C90C9
:100D40000CE1FE93FC0EEE93FD0EEE930ECE93FFA0
:100D500022BB010689828A83E0225002E722BBFE81
:100D600002E32289828A83E49322BB010CE5822973
:100D7000F582E5833AF583E0225006E92582F8E61C
:100D800022BBFE06E92582F8E222E58229F582E50A
:100D9000833AF583E49322BB010689828A83F02299
:100DA0005002F722BBFE01F322F8BB010DE58229B8
:100DB000F582E5833AF583E8F0225006E92582C8FA
:100DC000F622BBFE05E92582C8F222E88FF0A4CC0A
:100DD0008BF0A42CFCE98EF0A42CFC8AF0EDA42C62
:100DE000FCEA8EF0A4CDA8F08BF0A42DCC3825F031
:100DF000FDE98FF0A42CCD35F0FCEB8EF0A4FEA91C
:100E0000F0EB8FF0A4CFC5F02ECD39FEE43CFCEA28
:100E1000A42DCE35F0FDE43CFC22C3E49FFFE49E0C
:100E2000FEE49DFDE49CFC22ECF0A3EDF0A3EEF0CB
:100E3000A3EFF022F8E0FBA3A3E0F925F0F0E582B0
:100E4000158270021583E0FA38F022EBF0A3EAF085
:100E5000A3E9F022D083D082F8E493701274019356
:100E6000700DA3A393F8740193F5828883E47374DF
:100E700002936860EFA3A3A380DF75F0087582007A
:100E8000EF2FFFEE33FECD33CDCC33CCC58233C54F
:100E9000829BED9AEC99E58298400CF582EE9BFEE0
:100EA000ED9AFDEC99FC0FD5F0D6E4CEFBE4CDFA3B
:100EB000E4CCF9A88222B800C1B90059BA002DECDF
:100EC0008BF084CFCECDFCE5F0CBF97818EF2FFF77
:100ED000EE33FEED33FDEC33FCEB33FB10D703991F
:100EE0004004EB99FB0FD8E5E4F9FA227818EF2FCC
:100EF000FFEE33FEED33FDEC33FCC933C910D705EB
:100F00009BE99A4007EC9BFCE99AF90FD8E0E4C909
:100F1000FAE4CCFB2275F010EF2FFFEE33FEED3339
:100F2000FDCC33CCC833C810D7079BEC9AE8994066
:100F30000AED9BFDEC9AFCE899F80FD5F0DAE4CDC8
:100F4000FBE4CCFAE4C8F922E5082403F582E43492
:100F500000F583E0050822900000300703900003AD
:100F6000E475F001120E34020D512000E97F2ED2FB
:100F7000008018EF540F2490D43440D4FF30040B79
:100F8000EF24BFB41A0050032461FFE50960021585
:100F900009050CE50C7002050B30070E900000E40B
:100FA00075F001120E34EF020D970219477403D247
:100FB000078003E4C207F508900000120E4BE4F529
:100FC00009F50BF50CE50960077F20120F8B80F502
:100FD000750AFFC201C200C202C203C205C206C234
:100FE00008120F57FF700D3007057F00120F9CAFDE
:100FF0000CAE0B22B4255FC2D5C204120F57FF24DA
:10100000D0B40A00501A75F00A780930D50508B630
:10101000FF0106C6A426F620D5047002D20380D9AB
:1010200024CFB41A00EF5004C2E5D20402128ED2CB
:101030000180C6D20080C0D20280BCD2D580BAD294
:101040000580B47F20120F8B2002077401B50900C0
:1010500040F1120F48FF120F8B020FC5D208D206C3
:101060008095120F48FB120F48FA120F48F94A4BAD
:101070007006798C7A137BFF20022EE509602A7EA8
:10108000008E82758300120D6A60060EEE650A708E
:10109000F0C2D5EBC0E0EAC0E0E9C0E0EE1212EF2A
:1010A000D0E0F9D0E0FAD0E0FB120D51FF60AAEBDE
:1010B000C0E0EAC0E0E9C0E0120F8BD0E02401F903
:1010C000D0E03400FAD0E0FBE50A0460DCD50AD9B0
:1010D0008087D20280A21212D160F7E50A70010463
:1010E0001209A1A90A600DE50A600914F50A121394
:1010F00079EF60F3EA30E702F404C3995079EAF437
:10110000250A0430E701E404F50A800D1212D160CB
:10111000C1EA050A250A1209A1EA90002FF030E77A
:1011200001E4250A04D50A04200501141212EFE493
:10113000C0E012137990002FE0601320E70714F04D
:10114000120F73802204F0D0E014C0E07F00120F71
:1011500073E50A6007120F6A150A800B3005031247
:101160000F6AD0E0020FC5D0E00480C41212D16033
:101170009EE50A041209A190002FEAF0E50A200575
:101180000260010424041212EF74FF04C0E0121381
:1011900079120F73E50A2005026003120F6AD0E08E
:1011A000B50AE87F45120F7D90002FE07F2B30E7D6
:1011B000047F2DF404C0E0120F8BD0E075F00A8498
:1011C000C0F0120F74D0E0120F74020FC5791080B6
:1011D000027908C206C2088008D2D5790A8004794B
:1011E0000AC2D5E50A047002F50AE4FAFDFEFF1210
:1011F0000F48FC7B08200113120F48FD7B103000C4
:101200000A120F48FE120F48FF7B20EC3382D59262
:10121000D55013C3E43000069FFFE49EFEE4200196
:10122000039DFDE49CFCE4CBF8C201EC700CCFCE36
:10123000CDCCE824F8F870F38017C3EF33FFEE331A
:10124000FEED33FDEC33FCEB33FB994002FB0FD892
:10125000E9EB300105F8D0E0C448B201C0E00AEC87
:101260004D4E4F78207B0070C2EAB50A0040BCC0EA
:10127000E01212F1D0F0D0E0200104C4C0E0C4B20A
:1012800001C0F0120F74D0F0D5F0EB020FC5120EB2
:101290005410625311CD5810334C102F4211D14FBE
:1012A00011D94411D94910484311DF55110C461189
:1012B0006C4510D64713AC5010372D103B2E105EE6
:1012C0002B103F23105C2013952A0FF748000010C5
:1012D00056E50AB4FF03750A06120F48FC120F48C0
:1012E000FD120F48FE120F48FF9000280209DE7918
:1012F0000AA2D5200314300509B910020404B90864
:101300000104A2D52006025001042002689202B511
:1013100009005034C0E07F203003197F30A20272F0
:10132000067205500F121348C202C206C205C20857
:101330007F30800F300503E9C0E0120F8B300503CA
:10134000D0E0F9D0E0B509CC3005177F30B9100CEA
:10135000120F8B7F583004077F788003B90803127F
:101360000F8B3002057F2D020F8B7F202008F87F26
:101370002B2006F322920280CF7F00B40700500B8F
:101380002428F582E43400F583E0FF22286E756C92
:101390006C2900D201120F483001F8C201780930DF
:1013A000D50108F6020FF72D50434958120F482473
:1013B00003B405004001E49013A793120F7C743A24
:1013C000120F7CD2037509040211CDC0E0C0F0C039
:1013D00083C082C0D075D000C000C001C002C0036D
:1013E000C004C005C006C007C2AFC2AE900034E062
:1013F0007002A3E070030214ED30DF5AC2DF9000E8
:1014000054E004F07006900053E004F0900053E0C4
:10141000FCA3E0FDEC12091E7BF67A287974784172
:1014200012080390003A120E28E4FFFE7DA07C40D3
:1014300090003AE0F8A3E0F9A3E0FAA3E0FB120879
:10144000A04013900034E4F0A3F0900053F0A3F018
:10145000900036F0A3F020D9030214ED900037E09D
:1014600004F07006900036E004F0AFFBEF9000301F
:10147000F0A3E4F0AFEBA3F0A3EFF090003EE0FFA9
:10148000A3E0A3CFF0A3EFF0900053E0FEA3E0FFB2
:10149000EE3395E0FDFCE4FBFA7901F8120DCB90F8
:1014A0000032E0FCA3E0FD900031E02DFD90003023
:1014B000E03CCD2FFFED3EFE90003EF0A3EFF0A309
:1014C000E0FCA3E0FDC3EF9DFFEE9CFE900038F032
:1014D000A3EFF0FBAA06E4F9F87FE07E937D04FC1D
:1014E0001217D9900042EEF0A3EFF0C2D9C2DFC2CA
:1014F000D9D2AFD2AED007D006D005D004D003D019
:1015000002D001D000D0D0D082D083D0F0D0E03251
:1015100012177D12196E1219AA900034E07002A3FE
:10152000E070030215D275A00175FA7F9000037474
:10153000FFF0A37419F0A374FCF090003AE0FCA350
:10154000E0FDA3E0FEA3E0FF900006120E287B0161
:101550007A007944120FAD7B017A00794412181D8C
:101560007F081218C290000374FFF0A3741AF0A34E
:101570007403F0900036E0FFA3E0900006CFF0A3E4
:10158000EFF07B017A007944120FAD7B017A00798C
:101590004412181D7F101218C290000374FFF0A3AC
:1015A000741AF0A37408F0900042E0FFA3E09000EA
:1015B00006CFF0A3EFF07B017A007944120FAD7BE8
:1015C000017A00794412181D7FE87E031219EA029D
:1015D0001516E4F5A075FAFF7F6612185902151664
:1015E000E4900056F0900056E004F0E0B4FFF6D22C
:1015F000A0D2A1D2A2D2A3900056740DF0C2A02016
:10160000A4037401F020A5069000567402F020A6F1
:10161000069000567403F0D2A0C2A120A406900048
:10162000567404F020A5069000567405F020A60616
:101630009000567406F0D2A1C2A220A406900056D3
:101640007407F020A5069000567408F020A60690B6
:1016500000567409F0D2A2C2A320A40690005674CA
:101660000AF020A505E4900056F020A6069000564A
:10167000740CF0D2A3900056E0FF22787FE4F6D8F5
:10168000FD7581210216C2021510E493A3F8E493BC
:10169000A34003F68001F208DFF48029E493A3F865
:1016A0005407240CC8C333C4540F4420C8834004D7
:1016B000F456800146F6DFE4800B01020408102096
:1016C00040809019C7E47E019360BCA3FF543F3073
:1016D000E509541FFEE493A360010ECF54C025E03A
:1016E00060A840B8E493A3FAE493A3F8E493A3C8F2
:1016F000C582C8CAC583CAF0A3C8C582C8CAC58383
:10170000CADFE9DEE780BE90005AEBF0A3EAF0A35F
:10171000E9F0E4A3F090005DE0C39DEC6480F87410
:1017200080985042121A17EF640D6004EFB40A1843
:1017300090005AE0FBA3E0FAA3E0F9A3E0F582757C
:101740008300E4120DA9801E90005AE0FBA3E0FA8A
:10175000A3E0F9A3E0F582758300EF120DA99000D4
:101760005DE004F080AF90005AE0FBA3E0FAA3E054
:10177000F9AE04AF058F828E83E4020DA9C2C0C208
:10178000C1758030D2C27F2C7E011219EAC2C27F9D
:10179000641E1219EAD2C27F2C0E1219EAC2C27F4D
:1017A000641E1219EAD2C27F2C0E1219EAC2C27F3D
:1017B000641E1219EA7580381219E375800812192F
:1017C000E37580011219E37580061219E375800C28
:1017D0001219E3E4900059F022C2D5E830E70FB2C5
:1017E000D5E4C39BFBE49AFAE499F9E498F8EC3069
:1017F000E717B2D512180F120EB6E4C39BFBE49A9A
:10180000FAE499F9E498F88003120EB630D50DE4A5
:10181000C39FFFE49EFEE49DFDE49CFC229000003B
:10182000EBF0A3EAF0A3E9F0E4900055F090005546
:10183000E0FFC394205021900000E0FBA3E0FAA356
:10184000E0F98F82758300120D6AFF600B12185940
:10185000900055E004F080D522900003EFF0900056
:1018600059E0B410047F108009900059E0B42005BD
:10187000E4FF1218C2D2C0C2C1900003E0F580D2CA
:10188000C27F327E001219E5900059E004F02290E8
:10189000005EEBF0A3EAF0A3E9F0E4FE90005EE066
:1018A000FBA3E0FAA3E0F98E82758300120D6AFFB4
:1018B0006006121A0F0E80E47F0D121A0F7F0A02C3
:1018C0001A0F900059E0C394205028EFF0C39410F1
:1018D0005005E024808006900059E024B0F580C2D5
:1018E000C0C2C1D2C27F647E001219EAC2C27F3276
:1018F0001219EA2243F60175F32043F30853F3EF7C
:10190000AFF5EF75F004A4ADF47C002DFEEC35F0DE
:10191000900057F0A3CEF0900057E0FEA3E0FF2226
:1019200043892053892FC29FD29E438780AB07AA49
:1019300006E4F9F87F247EF4FDFC1217D9EFF404D5
:10194000F58DD29CD28E22EFB40A07740D12195273
:10195000740A309811A899B8130CC2983098FDA851
:1019600099C298B811F63099FDC299F5992275DAA5
:101970004275D901D2AFD2AED2A8D28875DB21751B
:10198000D840C2DFE4900034F0A3F022C0E0C0836E
:10199000C082900034E07002A3E07007900034F041
:1019A000A304F0D082D083D0E032C2C0C2C175801F
:1019B00001D2C27F327E001219EAC2C27F641219BC
:1019C000EAE4900059F0224200570000420036003D
:1019D00000420034000044003A000000004200537E
:1019E000000000D2C21219EAC2C2E4FDFCC3ED9F9E
:1019F000EC9E50070DBD00010C80F222743D252E97
:101A0000316600683D25690052504D3D2569008FC3
:101A1000993099FDC299223098FDAF99C2982290D1
:051A20000059E0FF2267
:00000001FF
