:030000000209B83A
:0C09B800787FE4F6D8FD7581070209FF86
:040D2D0041000F6111
:100ABA00E4F580C2C0C2C1758001D2C27FE87E035C
:100ACA00120D0BC2C2E4F580C2C0C2C1758038D211
:100ADA00C27FE87E03120D0BC2C2E4F580C2C0C217
:100AEA00C1758008D2C27FE87E03120D0BC2C2E430
:100AFA00F580C2C0C2C1758006D2C27FE87E0312E9
:100B0A000D0BC2C275800CD2C27FE87E03120D0B98
:030B1A00C2C22232
:030D4D008F802272
:100D1D00120ABA7F80120D4D90000FE0FF020BF901
:050D3100420002000079
:070D0400D2C2120D0BC2C2A6
:100D0B00E4FDFCC3ED9FEC9E50070DBD00010C8074
:010D1B00F2E5
:010D1C0022B4
:100B1D00C2C0C2C1758030D2C27F2C7E01120D0BB6
:100B2D00C2C27F641E120D0BD2C27F2C0E120D0B92
:100B3D00C2C27F641E120D0BD2C27F2C0E120D0B82
:100B4D00C2C27F641E120D0B758038120D047580A4
:100B5D0008120D04758001120D04758006120D0426
:0C0B6D0075800C120D04E4900004F022CE
:100BF900900010EFF0900004E0B410047F10800919
:100C0900900004E0B42005E4FF120C62D2C0C2C116
:100C1900900010E0F580D2C27F327E00120D06905E
:060C29000004E004F022CB
:0B0BBD00900009EBF0A3EAF0A3E9F0C0
:100BC800E4900000F0900000E0FFC39420502190D2
:100BD8000009E0FBA3E0FAA3E0F98F827583001215
:100BE8000800FF600B120BF9900000E004F080D5BC
:010BF80022DA
:100CE700C2C0C2C1758001D2C27F327E00120D0B15
:0D0CF700C2C27F64120D0BE4900004F022D5
:060D4700900004E0FF2211
:100C6200900004E0C394205028EFF0C39410500584
:100C7200E024808006900004E024B0F580C2C0C267
:100C8200C1D2C27F647E00120D0BC2C27F32120D2E
:020C92000B2233
:10091D00E4900001F0900001E004F0E0B4FFF6D2A5
:10092D00A0D2A1D2A2D2A3900001740DF0C2A0203A
:10093D00A4037401F020A5069000017402F020A616
:10094D00069000017403F0D2A0C2A120A40690006D
:10095D00017404F020A5069000017405F020A60690
:10096D009000017406F0D2A1C2A220A4069000014D
:10097D007407F020A5069000017408F020A60690DB
:10098D0000017409F0D2A2C2A320A4069000017444
:10099D000AF020A505E4900001F020A606900001C4
:0A09AD00740CF0D2A3900001E0FFEB
:0109B700221D
:100C940043F60175F32043F30853F3EFAFF5EF7513
:100CA400F004A4ADF47C002DFEEC35F0900002F0CD
:0B0CB400A3CEF0900002E0FEA3E0FFE2
:010CBF002212
:100CC00043892053892FC29FD29E438780AB07AAB6
:100CD00006E4F9F87F247EF4FDFC120B79EFF404AE
:070CE000F58DD29CD28E229B
:080D37008F993099FDC2992249
:0B0C2F0090000CEBF0A3EAF0A3E9F04A
:100C3A00E4FE90000CE0FBA3E0FAA3E0F98E8275D3
:100C4A008300120800FF6006120D370E80E47F0D44
:080C5A00120D377F0A020D376D
:070D3F003098FDAF99C29846
:010D4600228A
:0B0A4400900005EBF0A3EAF0A3E9F03E
:100A4F00E4A3F0900008E0C39DEC6480F8748098F4
:100A5F005042120D3FEF640D6004EFB40A1890007E
:100A6F0005E0FBA3E0FAA3E0F9A3E0F582758300AC
:100A7F00E412082D801E900005E0FBA3E0FAA3E02E
:100A8F00F9A3E0F582758300EF12082D900008E0BE
:100A9F0004F080AF900005E0FBA3E0FAA3E0F9AE0D
:0B0AAF0004AF058F828E83E402082D47
:1009C400020D1DE493A3F8E493A34003F68001F21F
:1009D40008DFF48029E493A3F85407240CC8C33334
:1009E400C4540F4420C8834004F456800146F6DF03
:1009F400E4800B0102040810204080900D2DE47E59
:100A0400019360BCA3FF543F30E509541FFEE493F7
:100A1400A360010ECF54C025E060A840B8E493A3BE
:100A2400FAE493A3F8E493A3C8C582C8CAC583CAE9
:100A3400F0A3C8C582C8CAC583CADFE9DEE780BEA1
:010D360000BC
:10080000BB010CE58229F582E5833AF583E02250AD
:1008100006E92582F8E622BBFE06E92582F8E222F7
:0D082000E58229F582E5833AF583E4932211
:10082D00F8BB010DE58229F582E5833AF583E8F001
:10083D00225006E92582C8F622BBFE05E92582C8AD
:02084D00F22295
:100B7900C2D5E830E70FB2D5E4C39BFBE49AFAE4A7
:100B890099F9E498F8EC30E717B2D5120BAF1208CF
:100B99008BE4C39BFBE49AFAE499F9E498F880039F
:100BA90012088B30D50DE4C39FFFE49EFEE49DFD42
:040BB900E49CFC229A
:10084F0075F008758200EF2FFFEE33FECD33CDCC60
:10085F0033CCC58233C5829BED9AEC99E5829840E3
:10086F000CF582EE9BFEED9AFDEC99FC0FD5F0D6C0
:10087F00E4CEFBE4CDFAE4CCF9A88222B800C1B9EA
:10088F000059BA002DEC8BF084CFCECDFCE5F0CB28
:10089F00F97818EF2FFFEE33FEED33FDEC33FCEB61
:1008AF0033FB10D703994004EB99FB0FD8E5E4F91C
:1008BF00FA227818EF2FFFEE33FEED33FDEC33FC09
:1008CF00C933C910D7059BE99A4007EC9BFCE99AFD
:1008DF00F90FD8E0E4C9FAE4CCFB2275F010EF2F42
:1008EF00FFEE33FEED33FDCC33CCC833C810D70742
:1008FF009BEC9AE899400AED9BFDEC9AFCE899F87D
:0E090F000FD5F0DAE4CDFBE4CCFAE4C8F9220F
:00000001FF
