:03000000021639AC
:10080000020B11E86480F8E933E83360110460F00A
:10081000ED33EC337009E8FCE9FDEAFEEBFF22045E
:1008200060DED3EB9FEA9EE99DE8C2E78CF0C2F759
:1008300095F0400CE8CCF8E9CDF9EACEFAEBCFFB25
:10084000120ADC85D0F05804700320D5B3E8047098
:10085000075002B2D5020B1B92D5EC0460F7E4CC32
:10086000C0E0C398F8603B94186008400DD0E0FBEE
:10087000020AF3E4FBFAC9FC8028E830E406E4C984
:10088000FBE4CAFCE830E305E4C9CACBFCE8540742
:100890006010F8C3E913F9EA13FAEB13FBEC13FC4D
:1008A000D8F130F52FC3E49CFCEF9BFFEE9AFEEDF0
:1008B00099FDD0E0FBEF4E4D4C701222DB03020B92
:1008C00018EC2CFCEF33FFEE33FEED33FDED30E79B
:1008D000EB020AF3EF2BFFEE3AFEED39FDD0E0FB21
:1008E00050130BBB0003020B1BED13FDEE13FEEFC9
:1008F00013FFEC13FC020AF3EC4D6011E84970178A
:10090000ED33EC3304600DE4FCFFFEFD22E933E837
:10091000330470F8020B11120ADC58046009E4CCAD
:1009200024815006285009020B1B284003020B1893
:10093000C0E0EB4A7044B98006D0E0FB020B07EF41
:100940004E701CBD8008EBFFEAFEE9FD80EBE98DEF
:10095000F0A4FEE5F00209E1E9CDF9EAFEEBFFEFD4
:1009600089F0A4FCE5F0CE89F0A42EFFE435F0CDAB
:1009700089F0A42DFEE435F08067EF4E7005BD8050
:10098000D780C3EF8BF0A4ACF0EE8BF0A42CFCE48A
:1009900035F0F8EF8AF0A42CE5F038FCE433CB8D89
:1009A000F0A42CFCE5F03BF8EE8AF0A42CFCE5F07A
:1009B00038F8E433CF89F0A42CFCE5F038CF3400CC
:1009C000CE89F0A42FFFE5F03EFEE433C98DF0A4FC
:1009D0002EFEE5F039CD8AF0A42FFFE5F03EFEE4CF
:1009E0003DFD33D0E0FB50070BBB000F020B1BECAF
:1009F0002CFCEF33FFEE33FEED33FD020AF3020B66
:100A00001BEC5D046005E859047003020B11120A27
:100A1000DC580460F6EC4860F2EC7004FDFEFF2246
:100A2000C860DB2481C85009C39860025006020BDD
:100A3000189850CAF582E9294B4A7005AB82020B1F
:100A40000775F0007C1A7880C3EF9BEE9AED994011
:100A50000DC3EF9BFFEE9AFEED99FDE842F0DC231B
:100A6000ACF0D0E0FFD0E0FED0E0FDAB8220E7109C
:100A70001BEB60BAEC2CFCEF33FFEE33FEED33FDE5
:100A8000020AF3E803F830E705C0F075F000EF2F35
:100A9000FFEE33FEED33FD40B830E7C280AA75F0BB
:100AA00020800E75F010800575F0087D007E007FB7
:100AB000003392D530D503120D52EC334010EF3392
:100AC000FFEE33FEED33FDEC33FCD5F0ED22E5F027
:100AD000247EA2D513CC92E7CDCEFF22E9D2E7C97E
:100AE00033E833F892D5EDD2E7CD33EC33FC500246
:100AF000B2D522EC30E7100FBF000C0EBE00080D7F
:100B0000BD00040BEB6014A2D5EB13FCED92E7FDE6
:100B10002274FFFCFDFEFF22E480F8A2D574FF13CF
:100B2000FC7D80E480EFF920E73624F95003790753
:100B3000E4F42402FBE582158270021583DBF6E003
:100B400024FB501BE96014E4F0E582158270021565
:100B500083E004F0B40A08E4F0D9EE7401F00A224C
:100B6000C2D522ED33EC3392D5FA602AB4FF33EDCF
:100B7000C2E77BFF60067A0B7988E4227A0B7991D1
:100B800020D5047A0B798C224E614E002B494E46BB
:100B9000002D494E4600E47A08F0A3DAFC7B00748D
:100BA0000722C083C082ECC0E0EDC0E0EEC0E0EF01
:100BB000C0E0EA75F010A4CAABF075F04DA42BFBB1
:100BC000E435F0FCEA2410FAEB34C5FBEC34D9FC34
:100BD000EDC2E7FF75F056A4F42411C5F0F434C556
:100BE0008FF0A42AE5F03BE43CF020E714120C98C7
:100BF000D0E0FFD0E0FED0E0FDD0E0FC120A0180A2
:100C000014F404120C98D0E0FFD0E0FED0E0FDD048
:100C1000E0FC1208F8D082D083E0FAEDD2E7CD33C1
:100C2000EC332482FBE4C3CF33CFCE33CECD33CDF0
:100C300033DBF37B0775F00A846004F0A31B0AE53D
:100C4000F0F0A38FF0740AA4FFACF08EF0740AA445
:100C50002CFEACF050010C8DF0740AA42CFDE43590
:100C6000F0F0A3DBDE7407223F800000412000008B
:100C700042C80000447A0000461C400047C35000B0
:100C8000497424004B1896804CBEBC205A0E1BCAD7
:100C90006753C21C749DC5AEFB60065407601C23DD
:100CA00023120CC6EB54386009120CB2120CC1129C
:100CB00008F8ECF8EDF9EEFAEFCB22EB120CC1805C
:100CC000F1543803241C900C68FE93FC0EEE93FD47
:100CD0000EEE930ECE93FF22BB010689828A83E03B
:100CE000225002E722BBFE02E32289828A83E49338
:100CF00022BB010CE58229F582E5833AF583E022E7
:100D00005006E92582F8E622BBFE06E92582F8E2D4
:100D100022E58229F582E5833AF583E49322BB013B
:100D20000689828A83F0225002F722BBFE01F32259
:100D3000F8BB010DE58229F582E5833AF583E8F0F9
:100D4000225006E92582C8F622BBFE05E92582C8A5
:100D5000F222C3E49FFFE49EFEE49DFDE49CFC229E
:100D6000BB010DE58229F582E5833AF583020EEE9B
:100D70005007E92582F8020EE1BBFE07E92582F85B
:100D8000020EFAE58229F582E5833AF583020F0720
:100D9000ECF0A3EDF0A3EEF0A3EFF022A8828583A0
:100DA000F0D083D082120DB3120DB3120DB3120D19
:100DB000B3E473E493A3C583C5F0C583C8C582C8F3
:100DC000F0A3C583C5F0C583C8C582C822F8E0FB7F
:100DD000A3A3E0F925F0F0E582158270021583E007
:100DE000FA38F022EBF0A3EAF0A3E9F022D083D0A6
:100DF00082F8E4937012740193700DA3A393F874B6
:100E00000193F5828883E4737402936860EFA3A36F
:100E1000A380DF75F008758200EF2FFFEE33FECD63
:100E200033CDCC33CCC58233C5829BED9AEC99E5AA
:100E30008298400CF582EE9BFEED9AFDEC99FC0F3A
:100E4000D5F0D6E4CEFBE4CDFAE4CCF9A88222B802
:100E500000C1B90059BA002DEC8BF084CFCECDFC87
:100E6000E5F0CBF97818EF2FFFEE33FEED33FDEC14
:100E700033FCEB33FB10D703994004EB99FB0FD8FD
:100E8000E5E4F9FA227818EF2FFFEE33FEED33FD9B
:100E9000EC33FCC933C910D7059BE99A4007EC9B9A
:100EA000FCE99AF90FD8E0E4C9FAE4CCFB2275F02A
:100EB00010EF2FFFEE33FEED33FDCC33CCC833C83B
:100EC00010D7079BEC9AE899400AED9BFDEC9AFC41
:100ED000E899F80FD5F0DAE4CDFBE4CCFAE4C8F9F0
:100EE00022E6FB08E6F908E6FA08E6CBF822E0F885
:100EF000A3E0F9A3E0FAA3E0FB22E2FB08E2F90891
:100F0000E2FA08E2CBF822E493F8740193F9740250
:100F100093FA740393FB22E508243CF582E4340041
:100F2000F583E005082290003930070390003CE487
:100F300075F001120DCD020CD82000E97F2ED200F1
:100F40008018EF540F2490D43440D4FF30040BEFBA
:100F500024BFB41A0050032461FFE509600215099B
:100F6000050CE50C7002050B30070E900039E47596
:100F7000F001120DCDEF020D1E0219057403D20708
:100F80008003E4C207F508900039120DE4E4F50986
:100F9000F50BF50CE50960077F20120F5A80F575F7
:100FA0000AFFC201C200C202C203C205C206C208D1
:100FB000120F26FF700D3007057F00120F6BAF0C6C
:100FC000AE0B22B4255FC2D5C204120F26FF24D077
:100FD000B40A00501A75F00A780930D50508B6FF32
:100FE0000106C6A426F620D5047002D20380D924B7
:100FF000CFB41A00EF5004C2E5D20402125DD20150
:1010000080C6D20080C0D20280BCD2D580BAD205C0
:1010100080B47F20120F5A2002077401B5090040E6
:10102000F1120F17FF120F5A020F94D208D2068046
:1010300095120F17FB120F17FA120F17F94A4B7080
:1010400006795B7A137BFF20022EE509602A7E0079
:101050008E82758300120CF160060EEE650A70F048
:10106000C2D5EBC0E0EAC0E0E9C0E0EE1212BED0AB
:10107000E0F9D0E0FAD0E0FB120CD8FF60AAEBC098
:10108000E0EAC0E0E9C0E0120F5AD0E02401F9D054
:10109000E03400FAD0E0FBE50A0460DCD50AD98030
:1010A00087D20280A21212A060F7E50A7001041232
:1010B0000B26A90A600DE50A600914F50A12134807
:1010C000EF60F3EA30E702F404C3995079EAF425BB
:1010D0000A0430E701E404F50A800D1212A060C191
:1010E000EA050A250A120B26EA900068F030E701AB
:1010F000E4250A04D50A04200501141212BEE4C036
:10110000E0121348900068E0601320E70714F01223
:101110000F42802204F0D0E014C0E07F00120F42A2
:10112000E50A6007120F39150A800B300503120F0C
:1011300039D0E0020F94D0E00480C41212A0609E67
:10114000E50A04120B26900068EAF0E50A20050281
:1011500060010424041212BE74FF04C0E01213489C
:10116000120F42E50A2005026003120F39D0E0B5E4
:101170000AE87F45120F4C900068E07F2B30E704AF
:101180007F2DF404C0E0120F5AD0E075F00A84C03D
:10119000F0120F43D0E0120F43020F947910800237
:1011A0007908C206C2088008D2D5790A8004790A73
:1011B000C2D5E50A047002F50AE4FAFDFEFF120F3B
:1011C00017FC7B08200113120F17FD7B1030000A5B
:1011D000120F17FE120F17FF7B20EC3382D592D52A
:1011E0005013C3E43000069FFFE49EFEE420010399
:1011F0009DFDE49CFCE4CBF8C201EC700CCFCECD9D
:10120000CCE824F8F870F38017C3EF33FFEE33FE19
:10121000ED33FDEC33FCEB33FB994002FB0FD8E9D7
:10122000EB300105F8D0E0C448B201C0E00AEC4D53
:101230004E4F78207B0070C2EAB50A0040BCC0E087
:101240001212C0D0F0D0E0200104C4C0E0C4B2014A
:10125000C0F0120F43D0F0D5F0EB020F94120DED59
:10126000103153119C5810024C0FFE4211A04F1127
:10127000A84411A84910174311AE5510DB46113B85
:101280004510A547137B5010062D100A2E102D2B4C
:10129000100E23102B2013642A0FC64800001025BF
:1012A000E50AB4FF03750A06120F17FC120F17FDAB
:1012B000120F17FE120F17FF900061020B63790ADD
:1012C000A2D5200314300509B910020404B908019D
:1012D00004A2D52006025001042002689202B5093A
:1012E000005034C0E07F203003197F30A202720624
:1012F0007205500F121317C202C206C205C2087F40
:1013000030800F300503E9C0E0120F5A300503D0DA
:10131000E0F9D0E0B509CC3005177F30B9100C12D8
:101320000F5A7F583004077F788003B90803120FE3
:101330005A3002057F2D020F5A7F202008F87F2B9C
:101340002006F322920280CF7F00B40700500B24C6
:1013500061F582E43400F583E0FF22286E756C6C41
:101360002900D201120F173001F8C201780930D5D7
:101370000108F6020FC62D50434958120F172403D7
:10138000B405004001E490137693120F4B743A12A7
:101390000F4BD20375090402119C12173BE4900015
:1013A00000F0A3F012192C1218B2900006EEF0A370
:1013B000EFF0FDAC06EC120AA37BF77AE479E17852
:1013C000BD1208F87B8F7AC279DF78421208079045
:1013D0000008120D90900008E0FCA3E0FDA3E0FEE1
:1013E000A3E0FFC004C005C006C007900000E0FEF7
:1013F000A3E07802C333CE33CED8F92425F5827426
:10140000003EF583D007D006D005D004120D909091
:10141000003C74FFF0A37419F0A37449F090000825
:10142000E0FCA3E0FDA3E0FEA3E0FF90003F120D6F
:10143000907B017A00790C120F7C7B017A00790C89
:101440001217DB900001E004F07006900000E00449
:10145000F0900000E07004A3E0640570517B017A15
:101460000079251214F190001B120D907F101218B4
:101470008090003C74FFF0A37419F0A37455F090B1
:10148000001BE0FCA3E0FDA3E0FEA3E0FF90003F13
:10149000120D907B017A00790C120F7C7B017A008F
:1014A000790C1217DBE4900000F0A3F080397F1074
:1014B00012188090003C74FFF0A37419F0A37455C7
:1014C000F090001BE0FCA3E0FDA3E0FEA3E0FF9092
:1014D000003F120D907B017A00790C120F7C7B018A
:1014E0007A00790C1217DB7F107E2712196B02131A
:1014F000A4900039EBF0A3EAF0A3E9F09000021207
:101500000D9C00000000E490001FF0A3F09000028A
:10151000E0FCA3E0FDA3E0FEA3E0FFC004C005C023
:1015200006C00790001FE0FEA3E07802C333CE336D
:10153000CED8F9FF900039E0FBA3E0FAA3E0F98FE1
:10154000828E83120D60D007D006D005D004120819
:1015500007900002120D90900020E004F0700690B9
:10156000001FE004F090001FE07004A3E064057029
:101570009CE4FBFA79A07840900002E0FCA3E0FD37
:10158000A3E0FEA3E0FF120A01900021120D90904B
:101590000021E0FCA3E0FDA3E0FEA3E0FF22E49035
:1015A000006AF090006AE004F0E0B4FFF6D2A0D246
:1015B000A1D2A2D2A390006A740DF0C2A020A4030D
:1015C0007401F020A50690006A7402F020A606902F
:1015D000006A7403F0D2A0C2A120A40690006A742D
:1015E00004F020A50690006A7405F020A60690007D
:1015F0006A7406F0D2A1C2A220A40690006A740701
:10160000F020A50690006A7408F020A60690006AF3
:101610007409F0D2A2C2A320A40690006A740AF052
:1016200020A505E490006AF020A60690006A740CDC
:10163000F0D2A390006AE0FF22787FE4F6D8FD752F
:10164000812102168002139AE493A3F8E493A34045
:1016500003F68001F208DFF48029E493A3F854072D
:10166000240CC8C333C4540F4420C8834004F45628
:10167000800146F6DFE4800B010204081020408060
:1016800090197DE47E019360BCA3FF543F30E509CF
:10169000541FFEE493A360010ECF54C025E060A860
:1016A00040B8E493A3FAE493A3F8E493A3C8C582F3
:1016B000C8CAC583CAF0A3C8C582C8CAC583CADF61
:1016C000E9DEE780BE90006EEBF0A3EAF0A3E9F05C
:1016D000E4A3F0900071E0C39DEC6480F8748098FE
:1016E0005042121992EF640D6004EFB40A18900092
:1016F0006EE0FBA3E0FAA3E0F9A3E0F582758300B6
:10170000E4120D30801E90006EE0FBA3E0FAA3E02F
:10171000F9A3E0F582758300EF120D30900071E0BF
:1017200004F080AF90006EE0FBA3E0FAA3E0F9AE16
:1017300004AF058F828E83E4020D30C2C0C2C17532
:101740008030D2C27F2C7E0112196BC2C27F641E10
:1017500012196BD2C27F2C0E12196BC2C27F641E8B
:1017600012196BD2C27F2C0E12196BC2C27F641E7B
:1017700012196B7580381219647580081219647516
:10178000800112196475800612196475800C121993
:1017900064E490006DF022C2D5E830E70FB2D5E4E2
:1017A000C39BFBE49AFAE499F9E498F8EC30E71764
:1017B000B2D51217CD120E4FE4C39BFBE49AFAE4A4
:1017C00099F9E498F88003120E4F30D50DE4C39FC9
:1017D000FFE49EFEE49DFDE49CFC22900039EBF0CA
:1017E000A3EAF0A3E9F0E4900069F0900069E0FF5B
:1017F000C394205021900039E0FBA3E0FAA3E0F964
:101800008F82758300120CF1FF600B121817900085
:1018100069E004F080D52290003CEFF090006DE08C
:10182000B410047F10800990006DE0B42005E4FF3F
:10183000121880D2C0C2C190003CE0F580D2C27FB5
:10184000327E0012196690006DE004F02290007262
:10185000EBF0A3EAF0A3E9F0E4FE900072E0FBA352
:10186000E0FAA3E0F98E82758300120CF1FF6006A6
:1018700012198A0E80E47F0D12198A7F0A02198AD2
:1018800090006DE0C394205028EFF0C394105005F1
:10189000E02480800690006DE024B0F580C2C0C2D4
:1018A000C1D2C27F647E0012196BC2C27F3212198C
:1018B0006B2243F60175F32043F30853F3EFAFF5C2
:1018C000EF75F004A4ADF47C002DFEEC35F0900033
:1018D0006BF0A3CEF090006BE0FEA3E0FF22438903
:1018E0002053892FC29FD29E438780AB07AA06E46C
:1018F000F9F87F247EF4FDFC121797EFF404F58DC0
:10190000D29CD28E22EFB40A07740D121910740AF9
:10191000309811A899B8130CC2983098FDA899C2B4
:1019200098B811F63099FDC299F59922C2C0C2C18A
:10193000758001D2C27F327E0012196BC2C27F64F1
:1019400012196BE490006DF02274656D70203D20DB
:10195000252E32660041766572616765203D20253F
:101960002E326600D2C212196BC2C2E4FDFCC3ED76
:101970009FEC9E50070DBD00010C80F22244001B1D
:101980000000000042006B0000008F993099FDC2FA
:1019900099223098FDAF99C2982290006DE0FF2205
:00000001FF
