:03000000020EB736
:03003300020D4279
:10080000E5082432F582E43400F583E005082290FF
:10081000002F300703900032E475F001120CFC0247
:100820000C032000E97F2ED2008018EF540F249093
:10083000D43440D4FF30040BEF24BFB41A0050036B
:100840002461FFE50960021509050CE50C7002053D
:100850000B30070E90002FE475F001120CFCEF0234
:100860000C1C0211C47403D2078003E4C207F5080C
:1008700090002F120D13E4F509F50BF50CE5096056
:10088000077F2012084380F5750AFFC201C200C22B
:1008900002C203C205C206C20812080FFF700D3063
:1008A00007057F00120854AF0CAE0B22B4255FC2BF
:1008B000D5C20412080FFF24D0B40A00501A75F0F4
:1008C0000A780930D50508B6FF0106C6A426F62029
:1008D000D5047002D20380D924CFB41A00EF50049B
:1008E000C2E5D204020A55D20180C6D20080C0D22D
:1008F0000280BCD2D580BAD20580B47F20120843D2
:100900002002077401B5090040F1120800FF120827
:100910004302087DD208D2068095120800FB120817
:1009200000FA120800F94A4B700679267A0B7BFF11
:1009300020022EE509602A7E008E82758300120B4C
:100940006560060EEE650A70F0C2D5EBC0E0EAC045
:10095000E0E9C0E0EE120A9CD0E0F9D0E0FAD0E085
:10096000FB120C03FF60AAEBC0E0EAC0E0E9C0E0C4
:10097000120843D0E02401F9D0E03400FAD0E0FBC3
:10098000E50A0460DCD50AD980877BFF7A0A79986A
:10099000D202809C791080027908C206C2088008C1
:1009A000D2D5790A8004790AC2D5E50A047002F525
:1009B0000AE4FAFDFEFF120800FC7B082001131276
:1009C0000800FD7B1030000A120800FE120800FF2C
:1009D0007B20EC3382D592D55013C3E43000069FC0
:1009E000FFE49EFEE42001039DFDE49CFCE4CBF8C3
:1009F000C201EC700CCFCECDCCE824F8F870F380B7
:100A000017C3EF33FFEE33FEED33FDEC33FCEB3376
:100A1000FB994002FB0FD8E9EB300105F8D0E0C4A8
:100A200048B201C0E00AEC4D4E4F78207B0070C206
:100A3000EAB50A0040BCC0E0120A9ED0F0D0E02027
:100A40000104C4C0E0C4B201C0F012082CD0F0D53B
:100A5000F0EB02087D120D1C091A5309945808EB9B
:100A60004C08E74209984F09A04409A049090043EE
:100A700009A655098A46098A45098A470B4650083E
:100A8000EF2D08F32E09162B08F7230914200B2F3E
:100A90002A08AF480000090E3F3F3F00790AA2D55F
:100AA000200314300509B910020404B9080104A296
:100AB000D52006025001042002689202B5090050B8
:100AC00034C0E07F203003197F30A2027206720525
:100AD000500F120AF5C202C206C205C2087F30805A
:100AE0000F300503E9C0E0120843300503D0E0F9F8
:100AF000D0E0B509CC3005177F30B9100C1208438F
:100B00007F583004077F788003B908031208433008
:100B100002057F2D0208437F202008F87F2B200646
:100B2000F322920280CF286E756C6C2900D20112DC
:100B300008003001F8C201780930D50108F6020832
:100B4000AF2D504349581208002403B4050040015A
:100B5000E4900B4193120834743A120834D20375AE
:100B60000904020994BB010CE58229F582E5833A68
:100B7000F583E0225006E92582F8E622BBFE06E96D
:100B80002582F8E222E58229F582E5833AF583E4BD
:100B90009322F8BB010DE58229F582E5833AF583BE
:100BA000E8F0225006E92582C8F622BBFE05E925B9
:100BB00082C8F222E88FF0A4CC8BF0A42CFCE98E42
:100BC000F0A42CFC8AF0EDA42CFCEA8EF0A4CDA8B5
:100BD000F08BF0A42DCC3825F0FDE98FF0A42CCDBE
:100BE00035F0FCEB8EF0A4FEA9F0EB8FF0A4CFC59E
:100BF000F02ECD39FEE43CFCEAA42DCE35F0FDE428
:100C00003CFC22BB010689828A83E0225002E72253
:100C1000BBFE02E32289828A83E49322BB01068918
:100C2000828A83F0225002F722BBFE01F32275F084
:100C300008758200EF2FFFEE33FECD33CDCC33CCE1
:100C4000C58233C5829BED9AEC99E58298400CF5FC
:100C500082EE9BFEED9AFDEC99FC0FD5F0D6E4CE2A
:100C6000FBE4CDFAE4CCF9A88222B800C1B900595E
:100C7000BA002DEC8BF084CFCECDFCE5F0CBF9782B
:100C800018EF2FFFEE33FEED33FDEC33FCEB33FBBF
:100C900010D703994004EB99FB0FD8E5E4F9FA2249
:100CA0007818EF2FFFEE33FEED33FDEC33FCC93344
:100CB000C910D7059BE99A4007EC9BFCE99AF90F0C
:100CC000D8E0E4C9FAE4CCFB2275F010EF2FFFEE78
:100CD00033FEED33FDCC33CCC833C810D7079BECC3
:100CE0009AE899400AED9BFDEC9AFCE899F80FD53B
:100CF000F0DAE4CDFBE4CCFAE4C8F922F8E0FBA397
:100D0000A3E0F925F0F0E582158270021583E0FA80
:100D100038F022EBF0A3EAF0A3E9F022D083D082EE
:100D2000F8E4937012740193700DA3A393F8740107
:100D300093F5828883E4737402936860EFA3A3A39E
:100D400080DFC0E0C0F0C083C082C0D075D000C0DA
:100D500000C001C002C003C004C005C006C00775C2
:100D6000A80030DF0E900003E004F070069000024F
:100D7000E004F030D87F900004E0FFA3E0A3CFF0C0
:100D8000A3EFF0AFFAEFA3F0A3E4F0AFEAA3F0A370
:100D9000EFF0900002E0FEA3E0FFEE3395E0FDFCF3
:100DA000E4FBFA7901F8120BB490000AE0FCA3E02E
:100DB000FD900009E02DFD900008E03CCD2FFFEDF7
:100DC0003EFE900004F0A3EFF0A3E0FCA3E0FDC31F
:100DD000EF9DFFEE9CFE900000F0A3EFF0FBAA0653
:100DE000E4F9F87FE07E937D04FC12101590000C6E
:100DF000EEF0A3EFF075A8C0C2D8900002E4F0A313
:100E0000F0D007D006D005D004D003D002D001D056
:100E100000D0D0D082D083D0F0D0E032E49000581F
:100E2000F0900058E004F0E0B4FFF6D2A0D2A1D2D6
:100E3000A2D2A3900058740DF0C2A020A4037401A4
:100E4000F020A5069000587402F020A606900058E5
:100E50007403F0D2A0C2A120A4069000587404F03C
:100E600020A5069000587405F020A606900058743E
:100E700006F0D2A1C2A220A4069000587407F02068
:100E8000A5069000587408F020A606900058740932
:100E9000F0D2A2C2A320A406900058740AF020A5A4
:100EA00005E4900058F020A606900058740CF0D28B
:100EB000A3900058E0FF22787FE4F6D8FD758121E9
:100EC000020EFE021059E493A3F8E493A34003F644
:100ED0008001F208DFF48029E493A3F85407240C7E
:100EE000C8C333C4540F4420C8834004F45680015F
:100EF00046F6DFE4800B01020408102040809012C7
:100F000043E47E019360BCA3FF543F30E509541FC6
:100F1000FEE493A360010ECF54C025E060A840B862
:100F2000E493A3FAE493A3F8E493A3C8C582C8CAE0
:100F3000C583CAF0A3C8C582C8CAC583CADFE9DEB3
:100F4000E780BE90005CEBF0A3EAF0A3E9F0E4A335
:100F5000F090005FE0C39DEC6480F874809850428C
:100F6000121235EF640D6004EFB40A1890005CE0D3
:100F7000FBA3E0FAA3E0F9A3E0F582758300E41295
:100F80000B92801E90005CE0FBA3E0FAA3E0F9A3C3
:100F9000E0F582758300EF120B9290005FE004F0A1
:100FA00080AF90005CE0FBA3E0FAA3E0F9AE04AFF1
:100FB000058F828E83E4020B92C2C0C2C17580305D
:100FC000D2C27F2C7E0112120FC2C27F641E121287
:100FD0000FD2C27F2C0E12120FC2C27F641E1212D9
:100FE0000FD2C27F2C0E12120FC2C27F641E1212C9
:100FF0000F7580381212087580081212087580016A
:1010000012120875800612120875800C121208E47C
:1010100090005BF022C2D5E830E70FB2D5E4C39B65
:10102000FBE49AFAE499F9E498F8EC30E717B2D5C2
:1010300012104B120C6AE4C39BFBE49AFAE499F990
:10104000E498F88003120C6A30D50DE4C39FFFE4E6
:101050009EFEE49DFDE49CFC22121221120FB912A7
:1010600011EB90003274FFF0A37412F0A37449F0F6
:1010700090000CE0FFA3E0900035CFF0A3EFF07BF1
:10108000017A00790E1208657B017A00790E121040
:101090009A7FE87E0312120F80C590002FEBF0A319
:1010A000EAF0A3E9F0E4900057F0900057E0FFC3A6
:1010B0009420502190002FE0FBA3E0FAA3E0F98FE9
:1010C00082758300120B65FF600B1210D6900057DB
:1010D000E004F080D522900032EFF090005BE0B4A5
:1010E00010047F10800990005BE0B42005E4FF123B
:1010F000113FD2C0C2C1900032E0F580D2C27F322F
:101100007E0012120A90005BE004F022900060EB77
:10111000F0A3EAF0A3E9F0E4FE900060E0FBA3E0B6
:10112000FAA3E0F98E82758300120B65FF60061248
:10113000122D0E80E47F0D12122D7F0A02122D90C7
:10114000005BE0C394205028EFF0C394105005E0FA
:101150002480800690005BE024B0F580C2C0C2C14C
:10116000D2C27F647E0012120FC2C27F3212120FEF
:101170002243F60175F32043F30853F3EFAFF5EF85
:1011800075F004A4ADF47C002DFEEC35F090005910
:10119000F0A3CEF0900059E0FEA3E0FF22438920A7
:1011A00053892FC29FD29E438780AB07AA06E4F9DA
:1011B000F87F247EF4FDFC121015EFF404F58DD2B7
:1011C0009CD28E22EFB40A07740D1211CF740A302C
:1011D0009811A899B8130CC2983098FDA899C29894
:1011E000B811F63099FDC299F59922C2C0C2C175F5
:1011F0008001D2C27F327E0012120FC2C27F6412FF
:10120000120FE490005BF022D2C212120FC2C2E4AD
:10121000FDFCC3ED9FEC9E50070DBD00010C80F25C
:101220002275A8C0C2DF75DA2175D840228F9930A7
:1012300099FDC299223098FDAF99C2982290005B27
:0C124000E0FF2242005900000025690078
:00000001FF
